:020000040800F2
:100000000090002005470008D90F0008DB0F00080A
:1000100000000000000000000000000000000000E0
:10002000000000000000000000000000DD0F0008DC
:100030000000000000000000DF0F0008E10F0008D2
:1000400055470008000000005547000855470008C4
:100050005547000855470008554700085547000810
:1000600000000000554700085547000855470008A4
:100070005547000855470008554700080000000094
:1000800055470008554700085547000855470008E0
:1000900055470008554700085547000855470008D0
:1000A00055470008554700085547000855470008C0
:0800B000554700085547000800
:1000B80010B5064C2378002B07D1054B002B02D036
:1000C800044800E000BF0123237010BD4405002050
:1000D80000000000584E0008044B10B5002B03D058
:1000E8000349044800E000BF10BDC04600000000FE
:1000F80048050020584E000802780B78002A03D0E3
:10010800013001319A42F7D0D01A70470023C25CFF
:100118000133002AFBD1581E7047000002B4714613
:1001280049084900095C49008E4402BC7047C04632
:1001380003B47146490840004900095E49008E44ED
:1001480003BC7047002243088B4274D303098B42D7
:100158005FD3030A8B4244D3030B8B4228D3030C8F
:100168008B420DD3FF22090212BA030C8B4202D331
:100178001212090265D0030B8B4219D300E0090A59
:10018800C30B8B4201D3CB03C01A5241830B8B4262
:1001980001D38B03C01A5241430B8B4201D34B034B
:1001A800C01A5241030B8B4201D30B03C01A5241B0
:1001B800C30A8B4201D3CB02C01A5241830A8B4235
:1001C80001D38B02C01A5241430A8B4201D34B021E
:1001D800C01A5241030A8B4201D30B02C01A524182
:1001E800CDD2C3098B4201D3CB01C01A5241830936
:1001F8008B4201D38B01C01A524143098B4201D370
:100208004B01C01A524103098B4201D30B01C01A9A
:100218005241C3088B4201D3CB00C01A5241830814
:100228008B4201D38B00C01A524143088B4201D341
:100238004B00C01A5241411A00D2014652411046A1
:100248007047FFE701B5002000F0F0F802BDC04696
:100258000029F7D076E7704703460B437FD4002286
:1002680043088B4274D303098B425FD3030A8B4242
:1002780044D3030B8B4228D3030C8B420DD3FF22AC
:10028800090212BA030C8B4202D31212090265D07A
:10029800030B8B4219D300E0090AC30B8B4201D32D
:1002A800CB03C01A5241830B8B4201D38B03C01A74
:1002B8005241430B8B4201D34B03C01A5241030BEB
:1002C8008B4201D30B03C01A5241C30A8B4201D39C
:1002D800CB02C01A5241830A8B4201D38B02C01A47
:1002E8005241430A8B4201D34B02C01A5241030ABE
:1002F8008B4201D30B02C01A5241CDD2C3098B42A3
:1003080001D3CB01C01A524183098B4201D38B011F
:10031800C01A524143098B4201D34B01C01A5241C2
:1003280003098B4201D30B01C01A5241C3088B4207
:1003380001D3CB00C01A524183088B4201D38B00F2
:10034800C01A524143088B4201D34B00C01A524194
:10035800411A00D201465241104670475DE0CA0F6B
:1003680000D04942031000D34042534000229C462B
:1003780003098B422DD3030A8B4212D3FC22890135
:1003880012BA030A8B420CD3890192118B4208D30B
:10039800890192118B4204D389013AD0921100E06D
:1003A8008909C3098B4201D3CB01C01A5241830981
:1003B8008B4201D38B01C01A524143098B4201D3AE
:1003C8004B01C01A524103098B4201D30B01C01AD9
:1003D8005241C3088B4201D3CB00C01A5241830853
:1003E8008B4201D38B00C01A5241D9D243088B42A9
:1003F80001D34B00C01A5241411A00D2014663464C
:1004080052415B10104601D34042002B00D54942AF
:10041800704763465B1000D3404201B5002000F0EE
:1004280005F802BD0029F8D016E770477047C046A6
:1004380070B5102698B0342200210BA804F0D3FB25
:1004480032000021684604F0CEFB1C22002104A8DB
:1004580004F0C9FB8020800001F096F81821184AA2
:100468000225D36D00248B43D36505230B93A0236A
:10047800DB020C9301230D935B19139380239B02DA
:10048800169380230BA89B05179312951494159621
:1004980001F0A4F80723009380232900DB016846B4
:1004A80003930195029401F0FFFA064B04A8049304
:1004B80080235B0006940A9301F0B8FB18B070BD66
:1004C800001002400200020030B58BB000F0B6FE0A
:1004D800FFF7AEFF1422002105A804F084FB0420D6
:1004E8000124474B0825596B014359635A6B024055
:1004F8000092009A596B1C300143596302215A6BD0
:1005080002400192019A5A6B3E4822435A635A6B41
:1005180022400292029A5A6B2A435A635A6B2A4023
:100528000392039A5A6B0A435A635B6B00220B408F
:1005380004933E31049B01F021F8402306940024E3
:1005480005A9304805930794089400F0F9FE2E4851
:100558002E4B846003607F23C36080330361802354
:10056800DB05036244618461C461446201F070FC8C
:100578002748284BC561036082235B004360E02362
:10058800DB00C36080239B008361FA3BFF3BC362AF
:100598004563846004614461046244628462046364
:1005A80001F028FD1C4D1D4B28002B60E1235B0248
:1005B8006B6080235B05AB600C23EC606B612C6186
:1005C800AC61EC612C626C62AC6202F08FF92100C4
:1005D800280002F019FA2100280002F037FA280052
:1005E80002F0F6F902F056FAC8232200DB000C49A3
:1005F8000C4803F08DFB02F013FB03F09FFFFCE7B0
:1006080000100240000C0050D84200200028004092
:1006180004430020003001406843002000440040AB
:1006280060050020E011002010B50824FF2000F02C
:1006380069FDFF2803D1013CE4B2002CF6D110BDBE
:10064800F0B587B004000CA805784020014302A843
:100658000170110E4170110C81700271110A012292
:100668001343C1704371002000F03AFD062204A92B
:1006780002A800F043FD052D4AD82800FFF74EFDDB
:1006880003142C354835FFF7CFFF0700FF2005007E
:10069800060001906B46207120001B792770667058
:1006A800A570E37007B0F0BDFFF7BEFF0700FF209D
:1006B80000F028FD0600012000F012FD012000F0E6
:1006C800E3FD002000F00CFDFF2000F01BFDFF28DB
:1006D800FAD101900500DDE7FFF7A6FF0700FF202C
:1006E80000F010FD0600FF20F3E7FFF79DFF07006D
:1006F800FF2000F007FD0600FF2000F003FD0500C5
:10070800FF2000F0FFFC0190FF2000F0FBFCC1E798
:10071800FF200190050006000700BBE710B5084C54
:10072800FF2000F0EFFC013CA4B2FE2803D0002C0F
:10073800F6D1022010BD604260414000FAE7C04691
:10074800FFFF0000F0B589B000F0EAFC01220F2598
:100758005B4B1A7002ABED1800232B7000212B782D
:1007680006AC0133DBB22B700A0095230091200000
:10077800FFF766FF0120277800F0B2FCFF2000F0A9
:10078800C1FC2B78632B03D90125280009B0F0BDE3
:10079800012FE3D10523D52200935200823308218B
:1007A8002000FFF74DFF2578380000F099FCFF2066
:1007B80000F0A8FC6B0723D5FF26002533002A008C
:1007C800372120000095FFF73BFF380000F088FC38
:1007D800300000F097FC2A00292133002000009502
:1007E800FFF72EFF23783800039300F079FC3000E0
:1007F80000F088FC039B012BDFD0324B1D80C4E73F
:10080800012DC1D1FF2700263B0032003721009679
:100818002000FFF715FF280000F062FC380000F008
:1008280071FC802200963B00D20529212000FFF7A9
:1008380007FF2678280000F053FC380000F062FC1F
:10084800012EE0D0FF25730717D40323002200935D
:100858003A21FC332000FFF7F3FE2578012000F051
:100868003FFCFF2000F04EFC002D00D08CE76378A1
:10087800144A5B06DB0F138087E700262B00320043
:10088800372120000096FFF7DBFE2778012000F0D3
:1008980027FC280000F036FC012F00D074E7320056
:1008A80000962B0029212000FFF7CAFE2678380081
:1008B80000F016FC280000F025FC012EDDD0C4E76E
:1008C800FC110020FE1100200022F0B58BB004AD11
:1008D800FF230400009209212800FFF7B1FE2B78BE
:1008E800002B30D001230393012000F0F9FBFF20F7
:1008F80000F008FC002204ADFF2300920A21280022
:10090800FFF79EFE2B78002B00D12BE1012601205A
:1009180000F0E6FBFF2000F0F5FB039B1E43CA4BEB
:10092800F0B21B88012B00D07BE180239B00E3639E
:100938006363A3681B019B0A0133DB0423635B0A1F
:10094800A3630BB0F0BDFFF7E9FE03900028C9D1FF
:100958000600FF2000F0D6FB06AD70550136102EBC
:10096800F7D1FF2000F0CEFBFF2000F0CBFB0120E9
:100978002B789A009B09134323706B786370AB78CC
:10098800A370EB78E3706A792B7911091B0119437D
:10099800A38812011B0B1B030B43A3801B051B0F12
:1009A80013436371AB79A179DA0981439F11074039
:1009B8000A43022187408A433A43042759110140D8
:1009C8008900BA430A4308211F1138408A43C000EE
:1009D8000243A2719C4A1188EA79002900D0A7E055
:1009E800981003310840217A0D3EB143014321722A
:1009F800297A90008A0902439B021343934822896B
:100A08001B0502409B0C134307222381A37AC810BD
:100A180010409343034311403820B14083430B43B4
:100A2800A3726B7AE17A5F099E10914316403943AD
:100A3800F60081433143E17206215B000B40A97A3D
:100A4800D1400B43217B91430B432373012006AE16
:100A5800B37A7E279D118340227C054082432A4336
:100A68007F25F17A3B40CF093B43834029400F0063
:100A7800024013432374637C317BAB43CA093B4375
:100A8800D2012B401343032263744B1113409C463D
:100A98006746A37C93433B431C271932BB430A4058
:100AA8001A43A2740C22737B890011409A091143DE
:100AB8008C460F226746E17C9143394310275A112F
:100AC8000240B94312010A43E2741F22217D1340F8
:100AD80091430B432021B27B8B43D7097F013B43D2
:100AE8004027911101408901BB430B435711FF0176
:100AF8002B40617D3B43237581431311034008005C
:100B080003270343062091103940490083430B43D0
:100B18003A401821BA408B431A436275F27BA37D91
:100B28005108AB430B43D2011D401543A575DBE6C5
:100B38003C213F209B000B4091090B43217A120472
:100B480081430B4323722B89A1685BBA9BB21A437A
:100B58003F4B920212090B401A43A260120EB24395
:100B6800E27273E7FFF7DAFD061E00D0CEE6070053
:100B7800FF2000F0C7FA06AD78550137102FF7D1DE
:100B8800FF2000F0BFFAFF2000F0BCFA2B7821000C
:100B980023766B7828311B026383638BAA7813430F
:100BA8006383EB781B06E3612B79E2691B0413432B
:100BB800E3616B79E2691B021343E361E269AB7994
:100BC8001343E361EA79631CDA772A7AA31CDA779C
:100BD8006B7A1B066362AB7A626A1B041343636217
:100BE800EB7A626A1B0213436362626A2B7B1343CC
:100BF80063626B7B0A78180902430A70F0221B02B1
:100C0800120113406385AA7B638D13432200638519
:100C1800EB7B2C325B081370230001222D331A70F2
:100C280075E62389227B9B0452071B0D520F023263
:100C380001339340802201219200E2636279120914
:100C480091409340616379E6FE11002003C0FFFFE5
:100C58003F0000F0F0B587B003920023802204AD76
:100C680000939200FF3307000C0028001021FFF7C3
:100C7800E7FC2E78012000F033FAFF2000F042FA5A
:100C8800002E02D00025012614E08020800003F009
:100C980089FD051EF6D08022FF21920003F0A3FFF4
:100CA800244B1B88012B01D080239B005C43039BB2
:100CB800002B0DD1012000F013FAFF2000F022FADA
:100CC800002D02D0280003F077FD300007B0F0BDFA
:100CD8000023220000931121FF3304A8FFF7B0FC82
:100CE80002AB1B7A002BCED1FFF718FD0028CAD122
:100CF800802239009200280000F000FA0D4B1B8872
:100D0800012B13D10134FF2000F0FCF9FF2000F083
:100D1800F9F9012000F0E4F9FF2000F0F3F9039B52
:100D2800013B039380239B00FF18C0E780239B00AF
:100D3800E418E8E7FE110020F0B587B0039200231D
:100D4800802204AD00939200FF3307000C002800B6
:100D58001021FFF775FC2D78012000F0C1F9FF2064
:100D680000F0D0F9002D09D00125012000F0B8F9D4
:100D7800FF2000F0C7F9280007B0F0BD80208000F0
:100D880003F010FD061EEFD0304B1B88012B01D05D
:100D980080239B005C430297039B002B03D1300008
:100DA80003F00AFDE1E7002304AF00932200FF33BC
:100DB80018213800FFF744FC3B78002B44D1FF2072
:100DC80000F0A0F9FF2000F09DF9FE2000F09AF94C
:100DD800802231009200029800F090F91B4B1B888A
:100DE800012B2DD10134FF2000F08CF9FF2000F0F9
:100DF80089F9FF2000F086F90700FF2000F082F94A
:100E08001F231F40052F1FD1012000F069F9002082
:100E180000F066F9FF2000F075F90700FF28F9D106
:100E2800012000F05DF9380000F06CF98022920092
:100E38009446039B013B0393029B63440293ABE7F5
:100E480080239B00E418CEE70125A8E7FE110020C7
:100E58001FB5022302AC00220D2100932000FD33B0
:100E6800FFF7EEFB012000F03BF9FF2000F04AF904
:100E780023780120002B03D16078431E9841C0B22B
:100E880004B010BD01200A4B82B0196C01431964EB
:100E980080211A6C490502400092009ADA6B0A43D5
:100EA800DA63DB6B0B400193019B02B07047C046CD
:100EB800001002400A4B026882B09A420ED180228A
:100EC800084B1202D96D0A438021DA65DA6BC90032
:100ED8000A43DA63DB6B0B400193019B02B0704756
:100EE800002800400010024010B5040088B0142209
:100EF800002103A803F077FE0F4B22689A4218D10D
:100F080080200E4B4001196C014319641A6C024091
:100F18000192019A0222596B0948114359635B6B8C
:100F280003A913400293029B38230492039300F011
:100F380007FA08B010BDC04600300140001002405A
:100F480000040050074B026810B59A4208D1064ABF
:100F58000649136C06480B401364382100F098FAD0
:100F680010BDC0460030014000100240FFEFFFFFF7
:100F78000004005010B5040088B01422002103A812
:100F880003F031FE104B22689A421BD180200F4B90
:100F98008002D96B0143D963DA6B02400192019A4E
:100FA8000122596BA020114359635B6B03A91340BD
:100FB8000293029B0C23C00503930A3B04930792F8
:100FC80000F0BEF908B010BD004400400010024017
:100FD8007047FEE77047704710B500F043F90120ED
:100FE80002F0B2FE10BD0000F0B52D4C89B0200013
:100FF80001F0A8F9061E50D12A4B022723600823C6
:10100800E361073B63610633E362E023DB00E360EF
:101018008023254D9B0014220100A060A06220635C
:101028002062A3616062FC3B606303A86360276180
:1010380003F0D9FD6B6B03A93B436B636B6B1B48D8
:101048003B400093009B6B6B3B436B636B6B04975C
:101058003B400193019B08230393073B0593DB194E
:10106800069300F06DF9202303A91048039307960F
:10107800059700F065F9102303A90C48039300F0C5
:101088005FF980212A6C49010A432A642B6C2000ED
:101098000B400293029B00F0ADFF09B0F0BDC046C3
:1010A80000120020003001400010024000040050EF
:1010B80013B51300084A094C126800920A0001008F
:1010C800200001F00DF8002804D0200000F0F0FF07
:1010D800FFF78AFF13BDC046000000200012002061
:1010E80010B50200012804D14021034800F046FA57
:1010F80010BD0022F8E7C046000C005010B5FFF7FD
:10110800D7FF10BD1FB50F246B466C44D871073349
:10111800180001222100FFF7CBFF207804B010BD92
:1011280010B588B01422002103A803F05CFD082044
:101138001A4B0124596B0143596302215A6B02402F
:101148000192019A5A6B16480A435A635B6B012253
:101158000B4002933E31029B00F010FA0122114825
:10116800110000F00BFA402303A903930C483D3B00
:1011780006930494059400F0E3F803A9084803943F
:1011880000F0DEF8FFF730FF0934013CFF20E4B23D
:10119800FFF7B8FF002CF8D108B010BD00100240CE
:1011A800000C0050000400500A4B10B519680200EA
:1011B800002901D1084919606946186882188A42CD
:1011C80006D903F0C5FA0C2303600120404210BD84
:1011D8001A60FCE764120020E44B00208022024BD6
:1011E80012059A607047C04600ED00E0104B70B5DC
:1011F80019680500002901D1012070BDFA2080007E
:10120800FEF7A0FF0B4B01001868FEF79BFF00F0EC
:101218007DF8041EF0D1032DEED80200012029002C
:10122800404200F043F8044B20001D60E5E7C0464B
:1012380008000020040000200C0000208023084A39
:101248005B00116810B50B4313600020FFF7CEFF59
:10125800041E03D1FFF716FE200010BD0124FBE792
:1012680000200240034A0449136809685B181360A8
:101278007047C046F443002008000020014B18685E
:101288007047C046F443002070B50400FFF7F6FF2E
:101298000500631C02D0044B1B68E418FFF7EEFF3F
:1012A800401B8442FAD870BD0800002070B589013F
:1012B800002812DB8308134A03249B009B18FF2293
:1012C8002040A0401400C025844011408140AD005A
:1012D8005E59A6433143595170BD03240F23C0B250
:1012E80003402040A040FC34250021408540814037
:1012F800083B054A9B089B009B18DA69AA431143DF
:10130800D961E9E700E100E000ED00E0094A431E89
:10131800012093420DD8C021074A08485360036A48
:1013280009061B021B0A0B43036200200723906077
:1013380013607047FFFFFF0010E000E000ED00E0E1
:10134800F0B50B6885B0029300230191029ADA4048
:1013580001D105B0F0BD01229A4003920399029A87
:101368000A40009200D185E0019A102152681600C7
:101378008E43022E0ED107251D40AD000139A9402C
:10138800DC08A4000419276A8F4301990969A94058
:101398000F43276203245F00BC40E4430568013E15
:1013A8002540AC4603251540BD4061460D43056008
:1013B800012E0FD801998668CD682640BD40354377
:1013C80085604668039915098E4301210D409D40AB
:1013D80035434560C56801992C408D688021BD4022
:1013E80049052C43C4600A4244D003260F242249ED
:1013F8009D081E40AD00F6006D18B440A0212F6E68
:10140800C905A743002488420CD01C4901348842EE
:1014180008D01B490134884204D01A490334884251
:1014280000D1023CB44000993C430E002C66164C97
:10143800CD43E76F3E43D10301D43E002E40E6671B
:10144800124E009FF46F2743910301D42C402700CC
:10145800094CF7672768009E3E43D10201D43E003D
:101468002E4026606668009F3743920201D42E40C2
:1014780037006760013369E7001802400004005034
:1014880000080050000C00500418024008180240E0
:10149800F0B50023032785B00291029ADA4001D102
:1014A80005B0F0BD01229A4002990092114056D031
:1014B8002C4C9A081D00920012190F243D40ED0093
:1014C800AC40166E019426400396A0260024F6052B
:1014D800B0420FD0244CA446012460450AD0234CC6
:1014E800A4460224604505D0214CA4463C00604532
:1014F80000D00524AC40039DA54213D1C9431D4E1D
:10150800184CF56F0D40F5671B4EF56F0D40F567EC
:1015180025680D402560656829406160116E019C51
:10152800A14311663C0059008C4002682100224307
:1015380007240F261C40A400A640C9430260DA080D
:1015480092008218156A009CB543156282680A40A9
:1015580082604268A2434260C2681140C1600133A0
:101568009BE7C046001802400004005000080050E5
:10157800000C00500418024008180240002A01D04C
:10158800816170478162FCE710B5104C10492368EF
:1015980002000B4003432360802300209B009A42F3
:1015A8000CD10C4B0C49186806235843FEF7CAFDAA
:1015B8008022431CD2006069104000D110BD002B6E
:1015C80001D0013BF7E70320F8E7C0460070004070
:1015D800FFF9FFFF0400002040420F00F0B50400AF
:1015E80085B0002802D1012005B0F0BD0368DB07F3
:1015F80010D423689B075CD423681B0700D5C2E07E
:1016080023685B0700D5F4E0E269002A00D073E1A3
:101618000020E9E73822AC4DAB681340EA68102B8C
:1016280009D1D243930708D12B689B03E1D563689E
:10163800002BDED1D7E7082BF6D080226368520250
:10164800934211D12A6813432B60FFF717FE8026B7
:101658000700B6022B683342CBD1FFF70FFEC01B41
:101668006428F7D90320BFE7A021C9028B4208D11B
:1016780080232968DB020B432B602B681A432A60FE
:10168800E3E72A6891490A402A602A6890490A4093
:101698002A60002BD9D1FFF7F1FD80260700B6029A
:1016A8002B683342A5D0FFF7E9FDC01B6428F7D9A2
:1016B800D8E73823844DAA681340EA68102B29D14B
:1016C80003210A40022A27D12A68520503D5E26875
:1016D800002A00D187E7696862697E4812020140E2
:1016E8000A436A60002B0DD12B687B4A134022699C
:1016F80013432B602B68794A9B045B0FDA40130075
:10170800774A1360774B1868FFF770FD002800D1FF
:1017180072E768E7002BD7D0E368002B20D02B684E
:101728006D4A802613402269F60013432B608023FC
:101738002A685B0013432B60FFF7A0FD07002B68A6
:10174800334207D06A68636962491B020A4013433F
:101758006B6051E7FFF792FDC01B0228EFD981E7C4
:101768002B68614A802613402B60FFF787FD07002E
:10177800F6002B68334200D13EE7FFF77FFDC01B20
:101788000228F6D96EE738214F4B9A681D000A40A7
:10179800182A08D11B6E9B0700D431E7A369002BD8
:1017A80000D02DE71FE7A2690123002A10D02A6E76
:1017B800022613432B66FFF761FD07002B6E3342A9
:1017C80000D01DE7FFF75AFDC01B0228F6D949E7EC
:1017D8002A6E02269A432A66FFF750FD07002B6EF1
:1017E800334200D10CE7FFF749FDC01B0228F6D9A8
:1017F80038E73821344B9A681D000A40202A08D15E
:10180800DB6D9B0700D4FFE6A368002B00D0FBE646
:10181800E9E68022DB6B5205134200D1EDE000239C
:101828008027324E009333687F003B4215D0A3686F
:10183800012B22D1EA6D1343EB65FFF71FFD022749
:101848000600EB6D3B4238D0009B012B00D0DBE655
:10185800EB6B274A1340EB63D6E633683B433360B0
:10186800FFF70CFD019033683B42E0D1FFF706FD1E
:10187800019BC01A0228F6D9F4E6EA6D052B05D1BA
:10188800013B1343EB65EA6D0123D4E701218A4349
:10189800EA65EA6D03318A43EA65002BCDD1FFF78B
:1018A800EDFC02270600EB6D3B42CDD0FFF7E6FCCE
:1018B800104B801B9842F6D9D4E6FFF7DFFC0D4B9E
:1018C800801B9842BDD9CDE600100240FFFFFEFF05
:1018D800FFFFFBFFFF80FFFFFFC7FFFF0024F400AF
:1018E800040000200C000020FFFEFFFF00700040F5
:1018F800FFFFFFEF881300003820444B99681D0054
:101908000140102952D01B6841490B402B60022A24
:1019180035D1FFF7B3FC80260700B6042B683342A5
:1019280027D1616A236AEA680B433A490A4013439C
:10193800E26A1343226B1343A26A80241202134300
:10194800EB6080232A685B0413432B608023EA68DA
:101958005B051343EB60FFF791FC0600A4042B68BA
:10196800234200D054E6FFF789FC801B0228F6D9F1
:1019780078E6FFF783FCC01B0228CFD972E6032262
:10198800EB6880249343EB60EB68234AA40413407C
:10199800EB60FFF773FC06002B68234200D137E6A3
:1019A800FFF76CFC801B0228F6D95BE6012A00D100
:1019B80019E6D8680323226A0340934200D012E64E
:1019C8007023626A0340934200D00CE6FE22A36AA9
:1019D800D20102401B029A4200D004E6F823E26AD0
:1019E8009B030340934200D0FDE5236B400F400763
:1019F800C01A431E9841C0B2F6E5EB6B1343EB6384
:101A0800EB6B13400393039B012309E7001002408B
:101A1800FFFFFFFE8C80C11FFFFFFEEF38231F4A28
:101A280070B591681400194208D1012113681C4847
:101A38009B045B0F9940FEF785FB70BD91681940C8
:101A4800082925D091681940102915D1D368D16883
:101A5800DB437F22E5684906490F2D0A013115400D
:101A68009B0707D10F48FEF76DFBE1686843490FF4
:101A78000131E0E70A48F6E791681940202909D0C2
:101A8800926800201340182BD7D1FA20C001D4E760
:101A98000448D2E780200002CFE7C0460010024089
:101AA8000024F40000127A00F7B505000E000028A3
:101AB80001D10120FEBD07274A4C23683B408B42D9
:101AC8002AD329688B073BD4CB0748D40727236838
:101AD8003B409E420AD22368BB4333432360FFF74F
:101AE800CDFB019023683B409E426BD12B683E4C56
:101AF8005B076FD4FFF792FFA3683C4A1B051B0FD7
:101B08009B009B581F221340D840394B1860394B13
:101B18001868FFF76BFBCDE72368BB430B432360D3
:101B2800FFF7ACFB019023683B409E42C9D0FFF70A
:101B3800A5FB019BC01A304B9842F4D90320B9E7A2
:101B4800294A4B0704D5E0239068DB0103439360DF
:101B580093682A480340A86803439360B4E76A6817
:101B6800214F012A19D13B689B03A2D50721BB68E5
:101B78008B431343BB60FFF781FB01903823BA689E
:101B88001A406B68DB009A42A0D0FFF777FB019BF5
:101B9800C01A194B9842F1D9D0E7022A03D13B6801
:101BA8009B01E3D485E7002A03D13B685B05DDD4BC
:101BB8007FE70223032A03D1396E1942D6D178E789
:101BC800F96DFAE7FFF75AFB019BC01A0A4B9842D6
:101BD80088D9B3E7A3680A4A1340EA681343A360A5
:101BE80088E7C0460020024000100240884E0008E6
:101BF800040000200C00002088130000FFF0FFFF05
:101C0800FF8FFFFF064B074A9B685B045B0F9B0037
:101C18009B581F221340044A1068D8407047C0469A
:101C280000100240C84E000804000020F0B505006E
:101C38002B6885B000209B034FD580224B4C520562
:101C4800E36B0090134208D1E36B1343E363E36B48
:101C580013400393039B012300938027444E7F0086
:101C680033683B433360FFF709FB019033683B421D
:101C780025D0C023E26D9B0013400FD0AA69934280
:101C88000CD0E26D3B4BE16D1340802252020A43B7
:101C9800E265E26D38490A40E265E365DB0706D58F
:101CA800FFF7ECFA02270600E36D3B4257D0E36DDD
:101CB800304A00201340AA691343E36506E0FFF7A2
:101CC800DDFA019BC01A0228D0D90320009B012B02
:101CD80003D1E36B294A1340E3632A68D30706D587
:101CE800032422494B6DA3436C6823434B65930738
:101CF80006D50C241D494B6DA343AC6823434B65A3
:101D0800530606D519491E4C4B6D2340EC682343F6
:101D18004B6553040FD515496C694B6D9B009B08A7
:101D280023434B658023DB059C4204D18023CC6888
:101D38005B022343CB6013050FD50C49114C4B6D47
:101D48002A69234013434B658023DB019A4204D15F
:101D58008023CA685B021343CB6005B0F0BDFFF770
:101D68008DFA094B801B98429ED9AEE700100240BD
:101D780000700040FFFCFFFFFFFFFEFFFFFFFFEFCB
:101D8800FFCFFFFFFF3FFFFF88130000A02102687D
:101D9800F8B5D36804008B43D360FFF76FFAFA27CE
:101DA80006002025BF002368DB682B4201D00020F5
:101DB800F8BDFFF763FA801BB842F4D90320F7E7B0
:101DC800F8B5402703680500DA6800243A420CD1C8
:101DD8008022D9680A43DA60FFF750FA06002B68B8
:101DE800DB683B4201D1032C01D12000F8BDFFF78D
:101DF80045FAFA23801B9B009842F0D92B00032454
:101E080029331C70EBE70000802270B50F4C0500E9
:101E1800E3689343E360A369603A134207D1FFF78D
:101E2800B5FF002802D003202935287070BDA369AA
:101E38009343A361FFF7AAFF002802D003202935A6
:101E480028702023A2691343A361EFE7002800400C
:101E580070B504000120002C47D0250029352B78C7
:101E6800DBB2002B08D122002832137088231B0212
:101E780063602000FFF71EF80223CA222B70236834
:101E880020005A62773A5A62FFF79AFF002825D154
:101E9800236816499A6960690A409A61A268996933
:101EA8000243E06902430A439A61226920001A61E9
:101EB800E268196912040A431A61FFF7A5FF0028AE
:101EC8000CD12268266A9369DB00DB089361636A98
:101ED80091693343A66933430B439361FF22236817
:101EE8005A62002801D101232B7070BDBFFF8FFB00
:101EF800E021036810B55A688A435A608222416813
:101F0800520091420CD18021826809028A4203D092
:101F18008021C9008A4203D140211A688A431A6085
:101F28008021826A89018A4206D11968074C2140BA
:101F3800196019680A431A60030001225D331A7098
:101F480000235C300370032010BDC046FFDFFFFF95
:101F5800F8B504000D001700802623689868304003
:101F680009D06A1CFAD0FFF789F9C01B8542F4D85A
:101F78002000FFF7BDFFF8BDF7B5C02705000C002E
:101F880016000193FF002B68986820400DD0BC42D2
:101F980000D11A7B721CF7D0FFF770F9019BC01AA9
:101FA8008642F0D82800FFF7A3FFFEBD70B51300E6
:101FB8000D0016000A00C02149010400FFF7DCFFEC
:101FC800002805D02023226E0320134323660FE048
:101FD800320029002000FFF7BBFF0028F2D1C02102
:101FE80033002A00C9002000FFF7C6FF0028E9D106
:101FF80070BD0000F8B504000120002C4BD0002370
:102008002500A3625D352B78DBB2002B05D12200B9
:102018005C3213702000FEF767FF0223402221681C
:102028002B700B68002093430B60E023E268DB0011
:102038009A4231D9F0263601B24233D10600206BDC
:10204800002803D19A422FD902232363A768636823
:10205800A0693B4327693B4367693B43E7693B43C7
:10206800276A3B43A76A3B438027BF0007403B439F
:102078000B60636A000C1A43636B1A43042318400D
:10208800104306434E60CB69084A00201340CB61D9
:10209800012320662B70F8BD802676019A42CED0A7
:1020A800A062CCE70600FBE70123CEE7FFF7FFFFBE
:1020B80070B504000120002C10D025000223402117
:1020C80022685D352B70136820008B431360FEF780
:1020D80039FF00205C3460602870207070BD0000FB
:1020E800F7B51E00030001925C331A7804000F0054
:1020F8000225012A00D1ACE001221A70FFF7BEF8D0
:10210800230000905D331B786168DBB2012B0BD094
:1021180082225200914200D094E0A268002A00D0A6
:1021280090E0042B00D08DE00125002F00D189E03C
:10213800019B002B00D185E0002E00D182E0230016
:102148005D331A78042A01D005221A70019A0023F7
:102158002264220008322366D687A21DD687E02291
:10216800E068E3642365A763E687A687D20023684F
:10217800904201D8012E31D95A68714D2A405A60CF
:10218800402223681D68154202D11D682A431A603F
:10219800E022D20090425ED9002901D0012E07D159
:1021A8003A880237DA60E38FA763013B9BB2E38783
:1021B800012502272E00E38F002B14D123000833BA
:1021C800DB8F002B0FD1009A08992000FFF7EEFE55
:1021D800051E37D020230125236633E080225D6861
:1021E80052012A43CBE7226893683B420ED0E38F23
:1021F800002B0BD0012D09D10025A36B19880233C0
:10220800D160A363E38F013B9BB2E38793683342BA
:102218000ED021000831CB8F002B09D03500236C5C
:10222800D2681A8002332364CB8F013B9BB2CB87E1
:10223800FFF724F8009BC01A089B8342BBD80133E0
:10224800B9D00325230001225D331A7000235C34C2
:1022580023702800FEBD002901D0012E0AD1E28F8B
:10226800012A51D93A880237DA60E38FA763023B23
:102278009BB2E387012502272E00E38F002B05D1AF
:1022880023000833DB8F002B00D19CE7226893687A
:102298003B4211D0E38F002B0ED0012D0CD1E18FE2
:1022A800A36B012938D919880233D160A363E38F5E
:1022B800023B00259BB2E38721688B68334219D023
:1022C80023000833DA8F002A14D0D88F226C012813
:1022D8002AD9C8683500108002322264DA8F023A9F
:1022E80092B2DA87DB8F012B04D880234A685B011E
:1022F80013434B60FEF7C2FF009BC01A089B834242
:10230800BBD80133B9D09CE73A781A73A36B013371
:10231800A363E38F013BABE71B781373A36B013314
:10232800A363E38F013BC4E7097B35001170226C7E
:1023380001322264DA8F013A92B2DA87DAE7C046CC
:10234800FFEFFFFF5D300078C0B2704770B5040042
:1023580002698368C16913434269656E1343026861
:102368000B4310682B439F4D284003431360536869
:102378009D48256A0340E06803435360A369906859
:102388002B439A4D28400F2503439360D06A636A14
:10239800A8431843D0629648824213D10320954A35
:1023A800526D02409448805C80221202914200D112
:1023B800B7E1082817D8FDF7B1FE8416BE16F21645
:1023C8001616F5008D48824205D10C20894A526DB7
:1023D80002408B48E7E78B4B9A4200D150E18A4B89
:1023E8009A4200D14CE1012091E1002B2FD0012B22
:1023F80019D0022B19D0032B19D0042B19D0052B77
:1024080019D0062B19D0072B19D0082B19D0092B56
:1024180019D00A2B19D00B2B19D17C486368616835
:102428005B08181860E17A48F8E77A48F6E77A48CE
:10243800F4E77A48F2E77A48F0E77A48EEE77A482C
:10244800ECE77A48EAE77A48E8E77A48E6E77A483C
:10245800E4E7FFF7E3FA1AE1002B18D0012B19D0B3
:10246800022B1AD0032B1BD0042B1BD0052B1CD0FE
:10247800062B1CD08020072B1BD0082B1BD0092B28
:102488001BD00A2B1BD00B2B02D14000C6E78020A3
:102498004002C3E780200002C0E78020C001BDE7FA
:1024A8006648BBE780208001B8E76548B6E765481D
:1024B800B4E74001B2E70001B0E7C000AEE7800032
:1024C800ACE7FFF79FFB636A0121002B21D0491875
:1024D800012B1ED00231022B1BD00231032B18D046
:1024E8000231042B15D00231052B12D00231062BF4
:1024F8000FD00431072B0CD01031082B09D0203114
:10250800092B06D040310A2B03D07F390B2B00D181
:10251800FF316568FDF716FE29006B08C018FDF746
:1025280011FE80B20300484A103B934200D95AE793
:102538002368D860EAE0002B2FD0012B19D0022B9A
:1025480019D0032B19D0042B19D0052B19D0062B21
:1025580019D0072B19D0082B19D0092B19D00A2B01
:1025680019D00B2B19D13948636861685B081818B2
:10257800D5E72848F8E72948F6E72A48F4E72A483B
:10258800F2E73348F0E73348EEE72848ECE7284815
:10259800EAE72848E8E71D48E6E71D48E4E7FFF7CB
:1025A8003DFA90E7002B18D0012B18D0022B53D0FE
:1025B800032B54D0042B54D0052B55D0062B55D0C3
:1025C8008020072B54D0082B54D0092B54D00A2B29
:1025D80054D00B2BC8D00002C6E78020FBE7802030
:1025E800C001C1E7F369FFCFFFCFFFFFFFF4FF1181
:1025F8000038014000100240E84E00080044004046
:10260800EC4E000800480040004C004048E801003B
:102618000024F40000127A005461510000093D00C2
:1026280000D43000AAB0280080841E0040420F0069
:1026380020A1070090D003000048E801AA2A000062
:102648009819000054150000EFFF000024F4000062
:10265800006A1800555814008020800184E7384823
:1026680082E7802040017FE736487DE736487BE7F0
:10267800000179E7C00077E7800075E7400073E75D
:1026880080231B02994200D01BE7FFF7BBFA636A5D
:102698000121002B21D04918012B1ED00231022B19
:1026A8001BD00231032B18D00231042B15D0023174
:1026B800052B12D00231062B0FD00431072B0CD07A
:1026C8001031082B09D02031092B06D040310A2BB4
:1026D80003D07F390B2B00D1FF31FDF733FD65683F
:1026E800400029006B08C018FDF72CFD80B20300DC
:1026F800164A103B934200D975E60F2302009A430D
:10270800130000072268400F1843D0600020220001
:1027180001236A321380023A13800023E366236799
:1027280070BD082800D95EE6FDF702FDAFFF5DFE2B
:102738005FFE5DFE93FE5DFE5DFE5DFE96FEC0469D
:1027480055150000CC0C0000AA0A0000EFFF00009D
:10275800836A30B5DA0706D50168284C4A682240F2
:10276800C46A22434A609A0706D50168244C4A681D
:102778002240046B22434A605A0706D50168214C5F
:102788004A682240446B22434A601A0706D501680A
:102798001D4C4A682240846B22434A60DA0606D5FB
:1027A80001681A4C8A682240C46B22438A609A06E0
:1027B80006D50168164C8A682240046C22438A6058
:1027C8005A0610D50168134D4A68446C2A402243C2
:1027D8004A6080225203944205D14A680E4C224036
:1027E800846C22434A601B0606D502680B4953686D
:1027F8000B40C16C0B43536030BDC046FFFFFDFF6B
:10280800FFFFFEFFFFFFFBFFFF7FFFFFFFEFFFFF65
:10281800FFDFFFFFFFFFEFFFFFFF9FFFFFFFF7FF58
:10282800F8B504000E0015001F002268D369334074
:102838009B1B59424B41AB4201D000201EE0069B36
:102848000133F3D0FEF71AFD069BC01B834201D368
:10285800002BEAD1220008CA09481968014019600A
:102868009968A330FF30814399602023D367220001
:102878000832D36700237C3423700230F8BDC04689
:102888005FFEFFFF030073B50026040088331E6057
:10289800FEF7F4FC236805001B681B0717D42368A0
:1028A8001B685B070AD580210F4B00220093C903E0
:1028B8002B002000FFF7B4FF002813D120230020AD
:1028C800221DD3677C340432D36720700BE080214B
:1028D800054B32000093890303002000FFF7A0FF97
:1028E8000028DCD0032076BDFFFFFF0170B5041E71
:1028F80001D1012070BD051DEB6F002B04D1020032
:102908007C321370FEF736FB242301212268EB6723
:10291800136820008B431360FFF718FD0128E8D0E7
:10292800A36A002B02D02000FFF712FF2368084992
:102938005A6820000A402A215A609A688A439A6095
:10294800012219680A431A60FFF79CFFD2E7C046C4
:10295800FFB7FFFF0123F0B587B002AA13705370C9
:102968009370032202A9CA7002250022072604AC2C
:102978008A71CA710E714B71A57004210700050098
:10298800083222702271426E6170E1706371A37126
:10299800E3716A376835002A03D13B802B8007B082
:1029A800F0BD03689A689B6801925B0F02AAD05C2D
:1029B800E15CC000FDF750FC019B38805B0E1E40B7
:1029C80002AB985DA15DC000FDF746FC2880E6E7F4
:1029D80070B504007C3422780223012A10D0012625
:1029E8000268051D2233EB6711681368B34313604F
:1029F800044B19400023436611602022EA672370C4
:102A0800180070BDFFFFFFDFF8B505007C352B7897
:102A180004000220012B17D0242322680138261D28
:102A28002870F3671768136883431360936820005E
:102A3800DB00DB0819439160FFF78CFF2368002057
:102A48001F602023F3672870F8BD0000F8B5050063
:102A58007C352B7804000220012B17D02423013861
:102A6800261D2870F36723681F681A6882431A6056
:102A78009A6807480240114399602000FFF76AFFEF
:102A8800236800201F602023F3672870F8BDC04624
:102A9800FFFFFFF110B50649064800F09FF800282F
:102AA80003D10122044B1A7010BD01204042FBE7FC
:102AB800F8430020FC4E00086812002070B501257C
:102AC800054C2570FEF7C4F9002802D12378AB43E2
:102AD80023702078C0B270BD10000020012310B50B
:102AE800054C2370FDF72EFE002802D1FFF7E6FF04
:102AF80020702078C0B210BD1000002010B5FFF77C
:102B0800DDFF10BD080010B511001A00054BFEF7D7
:102B1800A1F803000120002B03D1FEF799F9002842
:102B2800FBD110BD00E1F50510B5114B14001A7862
:102B380090B00320D30713D40130032910D808001C
:102B4800FDF7ECFA0D0208106846FDF7BDFE0E9B76
:102B5800236004E06846FDF7B7FE0F9B2380002042
:102B680010B010BD6846FDF7AFFE0F9B5B0AEFE79C
:102B780010000020080010B511001A00054BFEF7E0
:102B8800DBF803000120002B03D1FEF761F90028D0
:102B9800FBD110BD00E1F50530B50F4B01255C7A7E
:102BA800E4B2002C15D15D7A5C555D7AAD005D19F3
:102BB8006860587A2500181802725A7AD2B2501CE6
:102BC800C0B258723A2330324B700B3B0A708B708C
:102BD800CC70280030BDC0466C12002010B5002211
:102BE800FFF7DAFF10BD000010B55C21014801F0C5
:102BF80052FA10BDBC4B002010B5002001F096F829
:102C08000224002800D110BD02004C32137823435F
:102C1800137001F08BF8F4E710B5FFF7EDFF10BD66
:102C280010B5124C2378002B1FD101F08BFB01F05B
:102C3800FBFB01F053F901F02FF9FFF7D5FF00F086
:102C480021F800F019F8B6210948490001F023FAE3
:102C58005C21084801F01FFAFFF7DEFF00F02CFFA7
:102C6800012000F047FC0123237010BD78120020DA
:102C7800844B0020744B0020704710B53C2201F0B3
:102C8800A9FF10BDF7B50122F0491F240B780027D2
:102C980093430B70EE4BEF481B88062500936B4659
:102CA8001B88FE324B806B461B880A728B8001237F
:102CB800CB838B7ACF80A3438B724B894F8303409E
:102CC8004B813B000F338B73E14BCF725B88481C01
:102CD80001936B469B888F830B8201230B750B0036
:102CE8002C33CF820F83CA738F814F821A70C37FB0
:102CF8001E26A3432B43C3770D8CD64B881C1D403F
:102D0800C0235B002B4307250B841B0A2B40293566
:102D18002B43C377C81CC37F153DA3432B43C377FD
:102D28004B8CCC48143D03409420C00003434B8493
:102D38001B0A2B404935081D2B43C377C64B080097
:102D48004B6202234B850B00303033331A70037803
:102D58004C3DA3432B4303700B8EBE4D0F852B4078
:102D680080256D002B430B86F93D1B0A2B40193536
:102D78002B4343700B0032331F700B0038331A702B
:102D88000A00042034321378A343034313708B8E54
:102D9800B04803408020400003438B86F9381B0A63
:102DA80003402B4353700A00022328003932CB8694
:102DB80013781F388343A9481370FFF75EFF012279
:102DC800A64BA74D5A8301229A830122DA82012257
:102DD800190028001A83FFF750FF1E22681CC37FC2
:102DE8000721A3431343C3772B8C9A4AA81C13408B
:102DF800F022D20013432B841B0A0B4017390B43D4
:102E0800C377280030300378A343334303702B8EF5
:102E1800904E3340072613432B861B0A33400B433F
:102E280043702B00343318781736A043304318709A
:102E3800A88E884E304002430720AA86120A024014
:102E48000A435A701B22AB788449A3431343942244
:102E5800AB706B88D2003340134302006B801B0AAF
:102E68004932034013437F4EEB706B883000AB80D0
:102E7800FFF703FF0421721CD37F7B4DA3430B4351
:102E8800D377338C7349B21C0B40802149000B4324
:102E98003384F9391B0A0B4019310B43D3773200BD
:102EA800303213781C39A3430B431370338E6949AE
:102EB80028000B40802149000B433386F9391B0A4F
:102EC8000B4019310B4353703200343213781C39DC
:102ED800A3430B431370B38E5E490B408021490016
:102EE8000B43B386F9391B0A0B4019310B43537056
:102EF8006B461B8808227380554B31009B88B38032
:102F08000123F380B37AA3431343B3727289514BFD
:102F18001A4080239B001343072273811B0A134026
:102F280039321343F3720123B3814C23F373FFF750
:102F3800A4FE1C20691CCB7F464AA3430343CB77DE
:102F48002B8C07261340E022D20013432B841B0A44
:102F58003340273EA91C3343CB772B0030331978F5
:102F6800A14308431870298E3A4801400A430721B3
:102F78002A86120A0A4032435A702A0034321378D9
:102F88001131A3430B431370C023A98EDB0001400A
:102F98000B430721AB861B0A0B4047390B43537081
:102FA8001822AB78314EA3431343AB7098236A8839
:102FB800DB000240134307226B801B0A1340613277
:102FC8001343EB7011232A792449A24313432B712D
:102FD800B023AA889B00024013430722AB801B0A38
:102FE8001340213213436B71AB7A203AA343134346
:102FF800AB72B0236A895B000240134307226B81DE
:103008001B0A134009321343EB723000FFF735FEF9
:103018000122174D33783100134328003370B781EC
:103028003772FFF72AFE134E290030006F83AF83F3
:10303800EF822F83FFF721FE0F4D08492800F78301
:10304800FFF71BFE1A23AA78082017E0B44A0020CD
:10305800704E00081FF8FFFF300000203C4A002097
:103068002C4B00204C4900205C4800209848002048
:10307800004A002088490020D4480020A243134376
:10308800AB706A88F14B691C1A40A023DB0013431C
:1030980007226B801B0A134069321343EB700B2322
:1030A8002A794042A24313432B71AA88E74B6F82C7
:1030B8001A40E0235B0013430722AB801B0A13402E
:1030C800113213436B710123EB8006236B830623B4
:1030D800AB830423EB8204232B830223EB83052396
:1030E800AA7AC027A2431343AB726A89D74BBF00A1
:1030F8001A40C02313436B810823EB720123AB8171
:10310800B223EB736B46FC229B88D2002B82CB7FC9
:103118002343CB772B8CA91C13432B841B0A034313
:10312800CB772B003033197821431970298EC84E7C
:103138000A432A86120A02435A7029003000FFF710
:103148009CFD1222B3781821A3431343B3707388EC
:10315800BE4A134007223B4373801B0A134029329F
:103168001343F3703379293AA34313433371B28875
:10317800B64B1A4090235B0013430722B3801B0A07
:103188001340093213437371721CD37FA3430B435B
:10319800D377338CAD49B21C0B40B421C9000B4323
:1031A800072133841B0A0B4067390B43D37732005E
:1031B800303213787831A3430B431370338EA3490D
:1031C8000B40B421C9000B43072133861B0A0B406F
:1031D80067390B4353703200343213787831A34384
:1031E8000B431370B38E99490B40B421C9000B43AC
:1031F8000721B3861B0A974E0B4067390B43537060
:1032080029003000FFF739FD0422B378701CA3436E
:103218001343B37072888D4B07211A4080231343E0
:10322800738008231222F3703379A3431343337155
:10323800B388864A13401F4307230122B7803F0AF9
:103248001F4029331F43B37A7771A3431343B372E3
:1032580073897E4A1E27134020221343738100235B
:10326800F372C37F023AA3431343C377338C774A7D
:10327800B01C1340DC22D200134333841B0A0B40DA
:103288003F390B43C377300030300378A3433B43C7
:103298000370338E6D4F3B400727134333861B0A59
:1032A8003B400B4343703300343318781737A0433F
:1032B80038431870B08E654F384002430720B286F5
:1032C800120A654F02400A435A7031003800FFF76E
:1032D800D4FC0422BB780E26A3431343BB707A8820
:1032E8005A4B18211A40A02313437B800023FB70FC
:1032F8003B79A34333433B71BA88544B1A40982314
:103308009B0013430722BB801B0A1340213213433F
:103318007B717A1CD37FA3430B43D3773B8C4B49F8
:10332800BA1C0B40B421C9000B4307213B841B0A7C
:103338000B4067390B43D3773A0030321378783132
:10334800A3430B4313703B8E40490B40B421C90083
:103358000B4307213B861B0A0B4067390B4353700D
:103368003A00343213787831A3430B431370BB8E81
:1033780036490B40B421C9000B430721BB861B0A01
:10338800364F0B4067390B43380053702900FFF75D
:1033980074FC1B22BB780721A3431343BB707B88B3
:1033A8002A4A1B201340D822D20013437B801B0AD1
:1033B8000B402F390B43FB703B79A34303433B710D
:1033C800BB88224803401A430723BA80120A1A40CE
:1033D8000A437A711222BB7A791CA3431343BB7246
:1033E80090237A89DB000240134307227B811B0A62
:1033F8001340773A1343FB72CB7FE022A343334356
:10340800CB773B8C92000340072013433B841B0A75
:1034180003406930B91C0343CB77390030310B784E
:103428000A48A34333430B703B8E034007201343E2
:103438003B861B0A0340693003434B703B0034331F
:1034480019780248A1430E430AE0C0461FF8FFFF5F
:1034580010490020784A0020F04A0020C449002082
:103468001E70B98E01400A430721BA86120A0A4023
:1034780069310A435A70F7BD031FDBB200200A2BDB
:1034880001D8014AD05C7047104F00080323002878
:1034980007D00278023B110020395F2901D9D309EE
:1034A8005B00180070470000F7B5060000242827C5
:1034B8000E4B1B6801930E4B1B88A34200D8F7BD27
:1034C8003D006543019B5D196B68B34201D0002E36
:1034D80009D1002B02D0280000F0D4FA3A000021CC
:1034E800280001F080FB0134A4B2E4E7AC4B0020D3
:1034F8007A12002070B5144D04002B68002B05D0FB
:103508000020FFF7D1FF286800F064FF28266643F3
:10351800300000F02BFF2860002800D1FEE70B4B9D
:103528001C800024A64200D170BD2B6824221819E3
:10353800002101F058FB2B6828221819002101F0FE
:1035480052FB2834EEE7C046AC4B00207A1200202C
:1035580070B50C6A0D00002C11D02068002804D02A
:1035680000F0C4FC206800F035FF6068002801D036
:1035780000F030FF200000F02DFF00232B6270BD0B
:10358800F0B50B7B85B005000C00012B2AD14868EB
:1035980000F046FD4B49FCF7AFFD002800D08EE057
:1035A8000222616802A800F0F9FC002800D086E039
:1035B800266A002E0AD1083000F0D8FE20620028C2
:1035C80000D1FEE70822310001F00DFB0820266A31
:1035D80000F0CCFE3060002800D1FEE7082202A9E6
:1035E80001F0F8FA207CC006C00E031F022B08D891
:1035F800237B002B32D163689B680120636105B08F
:10360800F0BDC31F032B53D8FFF736FF266A05000A
:10361800002E0AD1082000F0A9FE2062002800D15F
:10362800FEE70822310001F0DEFA0227AF40380039
:10363800266A00F09BFE7060002803D13368002BD7
:1036480000D1FEE7237B012B0AD10421306800F06A
:1036580080FC03CE00233A0000F05DFC0023CCE799
:103668000422AA4063681F279B689A1801920722C0
:103678009446019A9A42F1D01E780578F608BD431F
:10368800354359789A7805703F25890829400E4EA8
:1036980005884901354029436546D20801803A40EA
:1036A800090AD20029400A43427004330230E0E795
:1036B8000B380328D2D921002800FFF749FF002042
:1036C8009DE7C0461B4F00081FF8FFFF30B50800F4
:1036D80085B00D001400FFF7D9FE031E1DD12A780E
:1036E800D206D20E111F0A2915D8206823492B6843
:1036F80001401F20DB025B0D9B020B4323606B889C
:103708005B095901638803400B4363802378834333
:103718001A4322701E3805B030BD01281AD1022282
:10372800290002A800F03AFC002808D101AB0422C5
:10373800210002A800F0EFFB02A800F0D7FB1F222F
:1037480000202378DB06DB0E1C331340153A9A421F
:103758004041E0E70020022BDDD12368074A013011
:103768001A408023DB001343202223606280C0328A
:103778001340D53A13432370CDE7C046FF03E0FF5B
:10378800F0B5B5B01F003AAB140000229B5E087C70
:1037980002931F2303401A1F0191022A2ED80B7B84
:1037A8000025012B27D10B6AC006C00E0393FFF733
:1037B80063FE019B06001969039BC902490D794301
:1037C80009194143C9100431186800F0C2FBA84226
:1037D80011D1029BF608F6B273431E0003980CAB96
:1037E80032003B9900680C9500F095FB0C9B9E1BE2
:1037F80075427541EDB2280035B0F0BD1A000B3A9C
:103808000026032A00D9ACE0FF22552106AB5A70E6
:103818001E7007AB597049189970DA701E70EF3A2C
:10382800974908A801F0D6F9019B9B681A8E039363
:103838003B9B110A0298B04218DC019B187CC00619
:10384800C00EFFF719FE01238340013B9BB204938E
:10385800019B0390187CC006C00E0B38032854D86F
:103868001D69ED02FCF75AFC082B3A4901361A701B
:10387800597036B20333DDE76B0DDA10551C5B0760
:1038880000D115B207266F43E110A643791806AC9C
:10389800019B1B7B002B3CD1019B5B689B685918E3
:1038A8003B9B0827981C1F2300229C46039BFF1A5A
:1038B8007BB20593029B934239DC01259BE76B0D94
:1038C8009A10551C9B0700D115B203266F43A1100F
:1038D800A4B2A6437918760007ACD9E76B0D5A1045
:1038E800551CDB0700D415B26F4361107918002608
:1038F800E30700D4042608ACCAE700266D0DA9B278
:1039080079432DB209193400C2E700263100350089
:10391800F9E7019B04311F6A386800F01AFB0CA90B
:1039280000232A00386800F0F6FA0CA9B8E7049BCF
:103938000D78B3402B4033416746019DDBB22D7CA7
:103948003D400E2D0BD10370039BF61A76B2002E64
:1039580001DA059E0131013212B20330AAE7E35CB5
:10396800F1E7073B3500032B00D944E7C006C00E3A
:10397800FFF782FD01238340013B9BB20493019B27
:103988000390187CC006C00E0738032868D81D6944
:10399800ED02FCF7C3FB023A4A5B6B0DDA10551CCB
:1039A8005B0700D115B23E0007276E43E110761879
:1039B8000836A743019B1C6A1B7B002B53D1019B34
:1039C8005B6899688E19FF23082200219C46039B97
:1039D800D21A52B202980BB2984200DC6DE7049BEF
:1039E8003578BB402B403B4165462B4065685B0002
:1039F8005B5B3B9D48002B52039BFF1A7FB2002F55
:103A080001DA170001360131E4E76B0D9A10551CF5
:103A18009B0700D115B23E0003276E43A110A4B244
:103A28007618A74310367F00C4E76B0D5A10551C53
:103A3800DB0700D415B23E00012761103C40674205
:103A480067416E4376184036BF00B3E780236D0D9B
:103A5800AEB27E43DB0036192DB2F6180027A9E76F
:103A680037003500A6E7311D206800F072FA002300
:103A78002A000CA9206800F04EFA0CAEA3E7C04655
:103A8800764E00080100006810B5002803D0C2680F
:103A9800002A00D0904710BD10B5064800F005FB7D
:103AA800041E00D1FEE71022002101F09CF820003E
:103AB80010BDC046904B002010B51021084800F0FA
:103AC800EAFAFFF7E9FF002800D1FEE7054B03609B
:103AD800054B4360054B8360054BC36010BDC04672
:103AE800904B0020D5360008893500088937000832
:103AF8005935000803780A78934201D0981A70471C
:103B080040784B78C01AFAE703880A88934201D0B4
:103B1800981A704740884B88C01AFAE700880B88C3
:103B2800C01A7047F0B5046885B063690D008B4210
:103B380009D000231420628A9205920D934205DB76
:103B48006561002016E0A06905B0F0BD06005E437F
:103B5800A26891190A68AA1A03928F88BA4202D9F0
:103B680001339BB2E7E703208B7C034004D1C8886C
:103B780080186561A061E7E7012B04D1CB68985CE8
:103B8800CB88C018F5E711480A8A0090022B0ED19D
:103B9800896803A800F093FD002801D10020E8E718
:103BA800A3689E19B368C01A4008F388E9E702239E
:103BB800896803A800F083FD0028EFD0A3689E1948
:103BC800B368C01AF3684008185CEEE7253B0008A4
:103BD80010B5002901D1002010BDC4680C30FFF7D2
:103BE800A1FF0028F7D06368C00018180028F2D099
:103BF800006823680003000B1818EDE7F0B587B0DC
:103C080005000F000393002A02D1002007B0F0BD81
:103C180006000C36C46811003000FFF783FF0290DD
:103C28000028F2D0E368002B1BD10023029A6168B8
:103C3800D2008A18218A01204B4351881B11090997
:103C48005B1808331B093B805379FB701379BB70F1
:103C580093793B71D3797B71E37CDB065B0FBB7196
:103C6800D4E7039B002BE0D019003000FFF75AFF80
:103C78000028DAD0EB68DA7CDD68930632D40322B8
:103C8800EB7A134018D105AB9C46029B0002C01882
:103C980063462E681880AB6831001A021A4B120A64
:103CA80000936046022300F00AFD031EBED0801B6D
:103CB80040086B681B56B9E7012BB6D1029B00027E
:103CC800C018AB682E681A02104B05900093120AB0
:103CD8000423310005A800F0F2FC031EA6D0801BC7
:103CE8000009E6E76B68029A9A5C002A9DD0195C85
:103CF80000299AD06B7B013A5A432B685B189B18B2
:103D0800013B1B785BB291E7FD3A0008113B0008C4
:103D1800F8B504000D0017001E001C22002100F059
:103D280062FF25606760A560E660F8BD010010B518
:103D38000448002902D100F0F8F910BD00F0F9F9A3
:103D4800FBE7C046744B00200022034B1A70034B5C
:103D58001A68101818607047801200207C12002022
:103D68000121044B19701A78002AFBD0024B1868FD
:103D78007047C046801200207C12002010B5040055
:103D8800FFF7EEFF001B10BDF0B5404D8DB02800C9
:103D980000F0CBF9082400280ED13D4F3868FFF712
:103DA800EDFF0190280000F0C0F9041E0DD1FFF7C7
:103DB800D7FF38600DB0F0BD421CD37F0100A3438C
:103DC800D377280000F0B5F9E5E70023314A661CEF
:103DD80013700822F37F13423AD11343F377638BAE
:103DE800019A9B181BB26383002B31DB228B934211
:103DF80000DD6283A3682000984763680100002BF8
:103E080001D0206898471A23E25E238B9A421BDB75
:103E18000322F37F134203D004321A40052A1CD12F
:103E28002422210003A800F0D5FE2100280000F07C
:103E3800CDF9200000F0CEFA0123164A1370069B34
:103E4800002B01D003A89847124B1B78002BA9D14F
:103E58002100280000F06DF9A7E7E28B5242628347
:103E6800DA07F1D504221340191E02D1A28B52425F
:103E780062834B424B410421F27F9B008A431343E8
:103E8800F3772369626963612261DDE7B04B002043
:103E9800841200208112002010B52421064800F069
:103EA800FAF8FFF75DFF054B032218601E21002377
:103EB800034800F0F1FB10BDB04B00208412002035
:103EC800913D000801300378002B05D03A2BF9D03A
:103ED8005C2BF7D02F2BF5D07047000010B544218C
:103EE800014800F0D8F810BD9C4B002070B50400C4
:103EF80040680B2500280CD00369023D002B08D030
:103F0800216898470500206800F064FA00232360C0
:103F18006360280070BD7FB506001C1E01D0002319
:103F2800236070680B23002810D08569023B002DA0
:103F38000CD00023039303AB009313000A003168ED
:103F4800A8470300002C01D0039A2260180004B08F
:103F580070BD70B5050040680A000B23002806D024
:103F6800046A023B002C02D02968A047030018000D
:103F780070BD000070B5084C0500200000F0D5F8B1
:103F8800002800D170BD0378AB42FBD001002000AF
:103F980000F0CFF8F4E7C0469C4B00200023F0B5B2
:103FA80085B004000F00039243600360994235D046
:103FB8000878FFF7DFFF6060002804D10325206040
:103FC800280005B0F0BD8368002B06D0984700286C
:103FD80003D1606020600125F2E76368588800F02B
:103FE800C5F9061E206000D1FEE763680925019324
:103FF800DB680293002BE3D03800FFF763FF029DD4
:104008000200039B31000198A847051ED8D02068FC
:1040180000F0E0F9002323606360D1E70B25CFE7C8
:1040280010B50400FCF772F880B2002801D10748E7
:1040380004E0235C2E2B02D10130201810BD2F2B59
:10404800F5D05C2BF3D00138EEE7C0461E4F0008D0
:1040580007B50B1E019209D000681100043018182A
:104068000422002903D001A900F0B4FD07BD00F027
:10407800BAFDFBE707B50B1E019208D000681100D6
:1040880018180422002903D001A900F0A3FD07BDD8
:1040980000F0A9FDFBE70023436083600333194266
:1040A80001D0994304310160704770B5040000687D
:1040B800083000F05BF9051E15D001000022200031
:1040C800FFF7D8FF290062682000FFF7C1FF616889
:1040D800002903D02A002000FFF7CCFFA368656001
:1040E800002B00D1A560280070BD70B504000068E1
:1040F800083000F03BF9051E15D001000022200011
:10410800FFF7A6FF2900A2682000FFF7B3FFA16808
:10411800002903D02A002000FFF79AFF6368A560F2
:10412800002B00D16560280070BD002800D04068D1
:104138007047002307B50193984206D0036804220C
:104148000433C91801A800F045FD01980EBD0023ED
:1041580007B50193984205D003680422C91801A83D
:1041680000F038FD01980EBDF8B505000C000028D8
:104178002AD0002905D04368994204D1FFF795FF5A
:1041880004002000F8BD0068083000F0EFF8061EB3
:1041980018D021002800FFF7DAFF070001003200DD
:1041A8002800FFF755FF3A0031002800FFF762FFAB
:1041B800320021002800FFF75DFF220031002800AF
:1041C800FFF746FF3400DCE70400DAE770B50400C7
:1041D8000D0000281BD04368994209D1290020000E
:1041E800FFF7A7FF0022011E606023D1A06070BD09
:1041F800836899420DD1FFF7AAFF011EA06001D183
:104208006060F4E700222000FFF722FFEFE70029B3
:10421800E4D029002000FFF79AFF290006002000BB
:10422800FFF787FF0500020031002000FFF710FFAD
:10423800320029002000FFF71DFFD8E7F8B5040079
:104248000D001600914207D0002A06D01100FFF792
:104258007EFF0700854222D1F8BD002800D086687D
:10426800B542F9D029002000FFF7B0FF2A0031003D
:104278002000FFF7EDFE320029002000FFF7FAFECC
:104288002A0000212000FFF7F5FE00222900200067
:10429800FFF7DEFEA560002EDED16560DCE72900B1
:1042A8002000FFF793FF2A0039002000FFF7D0FE17
:1042B8003A0029002000FFF7DDFE31002A00200027
:1042C800FFF7D8FE320029002000FFF7C1FE3E00AC
:1042D800E1E700000849002801D108687047031D7C
:1042E8000068400818180B68C0218901021D5B1876
:1042F8009A429B411840F1E788120020032330B509
:10430800194201D09943043103680A1D5B0893429E
:1043180015D099420CD00124043B5B1AA340021D1E
:1043280052181578A543157015682C40234313605F
:1043380001230268490013401943016030BD190088
:10434800F6E700000121064B064A187813608843F7
:1043580018701A681140044A0A431A607047C04628
:104368008C12002088120020F85F000070B5051E2E
:10437800114C1ED00323184201D09D43043500245C
:1043880001262000FFF7A6FF041E12D0037833424F
:10439800F7D103685B089D42F3D82900FFF7AEFF09
:1043A80023782A001E4326700434AA21200000F036
:1043B8001AFC200070BDC0468C420020031E06D0A7
:1043C800034A0020934202D0043B18684008704713
:1043D8008C420020134B70B50400984212D000287C
:1043E80010D0FFF7EBFF01250200BB212000043CA1
:1043F80000F0F9FB20002378AB432370FFF76AFF36
:10440800002800D170BD03782B42FBD122680168D7
:104418005308043349085B185B002A4013432360A0
:10442800ECE7C0468C42002010B514210348FFF782
:1044380032FE0122024B1A7010BDC046684B0020A4
:10444800A042002070B51C4C2000FFF76EFE011E34
:1044580005D12000FFF729FE041E14D1FEE70B7CCE
:1044680020005B075B0F032B04DCFFF77DFE041EB7
:1044780009D1FEE7FFF75DFE011EF0D12000FFF72E
:1044880034FE041E16D0FA2307225B002360237C27
:10449800002593431A000323134308229343A5607E
:1044A8002374FFF75DFC0122044B6060E560200087
:1044B8001A7070BDFEE7C046684B0020A14200207C
:1044C80010B5040001000748FFF780FE2000FFF741
:1044D80081FF054B1B689C4202D10122034B1A70D5
:1044E80010BDC046684B0020A84B0020A242002007
:1044F80070B504004068FFF741FC23680025984226
:1045080015D3FFF72DFC0B4B0B4E1D70A368606095
:104518003570AB4201D0200098473578002D06D180
:10452800237C01351B0702D52000FFF7C9FF2800AF
:1045380070BDC046A1420020A2420020F7B5384F06
:104548003C78002C07D101233B70364B1B78002B9D
:1045580002D100233B70F7BDFFF702FC324E3060FA
:104568000023324A32481370324A1370FFF7DDFDD8
:10457800314B1860304D2968002923D13068FFF786
:10458800FDFB2E4C2E4E2368181820603068FFF76C
:10459800F5FBF423FF339842DBD96425FA21206820
:1045A80049006843FBF7CEFDC0B20023A84201D8FA
:1045B8002D1AEBB2234A137000232360FFF7D0FBB8
:1045C8003060C6E71A48FFF7B4FD07220190286853
:1045D800037C1A40D2D0844203D1019B00242B6073
:1045E800C8E7052A0DD1FFF783FF104B1B78002B76
:1045F800C4D1104B1B78002BC0D10F4B019A1A6005
:10460800B8E7002C06D0227C5B0752075B0F520FDD
:104618009342EADDFFF76CFF0028E6D02C689FE79D
:10462800A3420020A042002094420020A242002081
:10463800684B0020A1420020A84B00209042002097
:104648009C42002098420020037C70B55B07040060
:104658000D005B0F8B4217D00E4E3000FFF765FD43
:10466800021E06D0137C5B075B0F9D420DDBA24246
:1046780003D021003000FFF7E1FD07232A00257C45
:104688001A409D431543257470BD11003000FFF793
:1046980050FDE5E7684B0020F7B507000E00150050
:1046A8000193FFF7CFFE041E00D1FEE78760066086
:1046B8002900FFF7C9FF019B2000E360FEBDF7B5A5
:1046C8000F00150001900093002D01D12800FEBDB8
:1046D800009C6E0874433C1921000198089B984778
:1046E800002806DD0123AB43F61A009BE7183500C6
:1046F800EAE70028FBD12000E9E700000D488546DD
:10470800002103E00C4B5B58435004310B480C4B21
:1047180042189A42F6D30B4A02E00023136004328F
:10472800094B9A42F9D3FCF759FD00F017F8FBF74B
:10473800CBFEFEE700900020E07C0008000000208F
:104748004405002044050020E44B0020FEE700005B
:10475800014B18687047C0464000002070B500261D
:104768000C4D0D4C641BA410A64209D1002600F084
:104778006FFB0A4D0A4C641BA410A64205D170BDFC
:10478800B300EB5898470136EEE7B300EB5898476B
:104798000136F2E7D87C0008D87C0008D87C0008ED
:1047A800DC7C000810B5034B0100186800F00EF817
:1047B80010BDC0464000002010B5034B010018682A
:1047C80000F090FA10BDC04640000020F0B50D0082
:1047D80085B00B350190162D08D907239D4306D5C2
:1047E8000C23019A1360002005B0F0BD10258D42FE
:1047F800F6D3019800F000FAF823FF33BA489D4237
:104808001FD82A0008328218110054680839EB08AA
:104818008C4203D1D4680233A24229D003236268B0
:10482800A1689A431300E268E318CA609160012204
:1048380059680A435A60019800F0E6F920000830E8
:10484800D2E76A0A3F23002A03D0042A28D8AB09F2
:10485800383303229446D9000918CC688C4206D014
:1048680066466268B243571B0F2F31DD013B0133A7
:104878000100046908318C424ED0032266689643D1
:104888003200761B0F2E31DD012763193D43374374
:10489800656043610361D96099605F60A650CAE7AB
:1048A800142A02D813005B33D3E7542A02D82B0BFF
:1048B8006E33CEE7AA235B009A4202D8EB0B77331C
:1048C800C7E78A497E238A42C3D8AB0C7C33C0E74A
:1048D800E668002F08DBA368DE60B3600123A21836
:1048E80051680B435360A6E73400B7E741610161A3
:1048F800002EF3DA7E498A4242D8D208FF39961050
:10490800FF39B1404668D2003143416010188268CF
:10491800E060A2608460D460012299108A407249E4
:104928004868824200D997E0104205D10324A34386
:10493800520004331042FBD09C46D800081802905D
:10494800029CE468029EB44258D1340008340294B0
:104958000124A444644603263442F1D103242342AB
:1049680074D14B6893434B6048685200824273D8B5
:10497800002A71D063461042DED104335200FAE7B0
:10498800560A042E16D891093831CF003E1803274D
:104998000296BC46B668029FB74227D10122891009
:1049A8008A4041680A434260029AA660E2609460C5
:1049B800F460B1E7142E02D831005B31E5E7542EDC
:1049C80002D8110B6E31E0E7AA2149008E4202D8C5
:1049D800D10B7731D9E7454F7E21BE42D5D8910C0E
:1049E8007C31D2E7B6680299B14204D0604671685A
:1049F80081438A42F6D3F2680292D5E703266768B4
:104A0800B74303977E1B0F2E11DD0122631915434F
:104A18006560E068A5680831E86032438560CB606E
:104A28008B60D96099605A603B00E65003E7E768FD
:104A3800002E09DB0122039BE31859680A435A60D8
:104A4800A368DF60BB60F6E63C007BE70838846853
:104A5800013BA04282D087E703238F687A689A4394
:104A68000292954203D8521B0F2A00DD9FE0029B59
:104A7800FB1803931F4B1E681F4B10361B687619D3
:104A8800013305D01D4B013B9E191C4B5B421E4058
:104A98003100019800F0C0F80400431C5FD0039B6C
:104AA800834202D9104B9F4259D1154B1A68B1184D
:104AB8001960124B5A1E039BA34227D1134225D1DA
:104AC800029A094B921901269B6816435E600C4BAB
:104AD8000C4A1B6811688B4200D913600A4A116896
:104AE8008B423CD913603AE03401002054050000A1
:104AF800FF010000D44200203C0500208000000097
:104B0800A4420020CC420020D04200202D4B18683F
:104B1800013032D11C600720204002D00823181A27
:104B28002418294BA61918181640861B310001981D
:104B380000F072F8431C01D120000026234A001B14
:104B480013689B1913600123214A86191E43946038
:104B580066609742BBD0029A0F2A14D8636003227A
:104B68001B4B9B685B6893435A1B9D4201D80F2AD5
:104B78001DDC019800F048F835E6039BE31A5B1842
:104B880012490B60C7E70722029E0C3E96437A68DB
:104B98001340052233437B60BB195A609A600F2E7D
:104BA80095D939000198083100F09CF88FE7012366
:104BB8001800074928438C681343651960608D60A5
:104BC8006B6038E63C05002080000000A44200200D
:104BD80034010020002310B59A4200D110BDCC5CEE
:104BE800C4540133F8E703008218934200D1704798
:104BF80019700133F9E7000010B5024800F026F9F2
:104C080010BDC046D84B002010B5024800F01FF96F
:104C180010BDC046D84B0020002370B5064C0500D7
:104C280008002360FCF7C0FA431C03D12368002B5B
:104C380000D02B6070BDC046E04B0020F7B5254F73
:104C48000C000500FFF7D8FF38000322224E113868
:104C5800B368001B5B6839009343C0180193FBF7E6
:104C680071FA441E7C43BC4204DA2800FFF7CCFFEB
:104C78000020FEBD00212800FFF7CEFFB368019A8F
:104C88009B189842F1D161422800FFF7C5FF431CE9
:104C980010D100212800FFF7BFFFB268811A0F2941
:104CA800E3DD0E4B1B68C01A0D4B186001230B4344
:104CB8005360DAE7B2680126019B28001B1B3343C7
:104CC8005360074B1A68141B1C60FFF79DFF3000E8
:104CD800CFE7C04680000000340100203C050020DA
:104CE800A4420020F7B50D1E01902DD0FFF784FFD8
:104CF800012329009C4608394F6862463B006646F6
:104D08009343C8184568023295434A4A3740966823
:104D1800B0421AD15B19002F06D10868091A8D68AC
:104D28001B18C868E86085600120184348609160D6
:104D3800414A1268934204D3404B01981968FFF71F
:104D48007DFF0198FFF760FFF7BD00264560B74279
:104D580009D10F683A4CC91BDB198F68A7422BD0C1
:104D6800CC68FC60A76047197C6801273C420BD1DE
:104D78005B198568002E21D1314CA5421ED13E0019
:104D880051611161CD608D60012005001D434D60AA
:104D9800CB50002ED5D12B4DAB4213D8DB089D103C
:104DA800A8405468DB00204350609A189368CA6092
:104DB8008B609160D960C4E76646D4E7C068E86054
:104DC8008560E1E75D0A042D12D898093830C600DD
:104DD800B618B5680327AE4225D101238010834059
:104DE800506803435360CE608D60B160E960A8E706
:104DF800142D02D828005B30E9E7542D02D8180B8F
:104E08006E30E4E7AA204000854202D8D80B7730FC
:104E1800DDE70D4E7E20B542D9D8980C7C30D6E718
:104E2800AD68AE4203D06A68BA439342F8D3EE68DD
:104E3800D9E7C0463401002040050020D4420020B4
:104E48003C010020FF010000540500007047704736
:104E5800F8B5C046F8BC08BC9E467047F8B5C046D1
:084E6800F8BC08BC9E4670472F
:104E7000FFFF108418C600112233445566778899C5
:104E8000AABBCCDDEEFF0000000000000000000027
:104E90000000000000000000000000000000000012
:104EA00000000000000000000100000002000000FF
:104EB00003000000040000000600000007000000DE
:104EC00008000000090000000000000000000000D1
:104ED00000000000000000000100000002000000CF
:104EE000030000000400000000040208001010107D
:104EF000041010100210101008000000E52A00082D
:104F0000052B00080D2B00087D2B0008312B000815
:104F1000101810010204080102040862696E000002
:104F2000200000005F000100000000000000000001
:104F30000000000001F0000093026000747C000893
:104F4000000000003200020000000000000000002D
:104F5000000000040000000000003004020C01000A
:104F60000C00C005040501071600000A0A0C000029
:104F700052005009081001FE9200B00B0B0D00FF0B
:104F8000DA00000A0A0D00FF1B0180030205010779
:104F900020015005051101FC4B016005051100FCC5
:104FA0007601F006070600038B01100909090001CC
:104FB000B4019003020401FEB801300705020104A8
:104FC000BD01500402020100BF01A006060D00FF52
:104FD000E6010009080D01FF1A020009050C010095
:104FE00038020009080C010068020009070D01FFE2
:104FF00096020009090C0000CC020009080D01FF0F
:1050000000030009080D01FF34030009090C00002A
:105010006A030009090D00FFA5030009080D00FF40
:10502000D903100402090100E2032004020B01FE6F
:10503000ED03200807080000090400090705010323
:105040001B046008070801003704A007070C0000D4
:105050006104500E0D1001FCC904200A0A0C000066
:105060000505200A090C01003B05200A090D01FF76
:105070007605D00A090C0100AC05C008080C010037
:10508000DC05C008080C01000C06D00A090D01FF60
:105090004706400B090C01007D068004020C01004C
:1050A0008906C008080D00FFBD06200A090C010092
:1050B000F306C008080C01002307D00D0C0C0100FA
:1050C0006B07400B090C0100A107F00A090D01FF55
:1050D000DC07200A090C01001208200B0A0D01FF51
:1050E0005308200A090C01008908D009080D01FFA6
:1050F000BD0890090A0C0000F908D00A090D01FF4B
:105100003409200A0A0C00007009C00D0E0C0000C2
:10511000C409200A0A0C0000000A200A0A0C000038
:105120003C0A9009090C0000720A5004041001FDA9
:10513000920AA006070D00FFC00A5004031000FDEC
:10514000D80AB00606070005ED0A4007080200FE6F
:10515000F50A000504030009FB0AD008080A00FF4D
:10516000230B2009080E01FF5B0B6008080A00FFF3
:10517000830B2009080E00FFBB0B6008080A00FF24
:10518000E30BE004060D00000A0C2009080D00FCEA
:105190003E0C2009070D01006C0C1004020D0100EB
:1051A000790C20040411FFFC9B0C3008070D010052
:1051B000C90C1004020D0100D60C000E0C090100F0
:1051C0000C0D2009070901002C0D2009090A00FF18
:1051D000590D2009080D01FC8D0D2009080D00FC5A
:1051E000C10DA00505090100D80D6008070A01FFDF
:1051F000FB0D2005050C00FF190E2009070A01FF11
:105200003C0E100808090000600E200C0C0900007C
:10521000960E100808090000BA0E1008080D00FCD0
:10522000EE0E100808090000120F7005061000FDB0
:10523000420FF003020E01FE500F7005051000FD35
:10524000780FE00A090401038A0FB00D0E1000FD6B
:10525000FA0F2011121000FD8A100010100D00002E
:10526000F21000100E0B01003F11900C0B0C01FF0F
:105270008111B00D0E1000FEF111B00D0E0F00FEE9
:105280005A12900C0D0F00FEBC12E00E0F0C000025
:105290001613E00E0F0E00007F13B00D0E0C000071
:1052A000D313B00D0E0F00FE3C14E006070B0000F8
:1052B0006314500A0B0B0000A014E00E0F0D00FF4A
:1052C00002152011120F00FE8915B00D0E0F00FE01
:1052D000F21520090A0F00FE3D16900C0D0F00FE7E
:1052E0009F16B00D0E0F00FE0817B00D0E0F00FE3A
:1052F000711720090A0F00FEBC17C00D0E0C00002C
:105300001018700B0A0F01FF5B18700B0A0F00FFDB
:10531000A618900C0D0D0000FB18900C0D04000455
:1053200015190010101000FE95190010100F00FF45
:105330000D1A0010100A00005D1A0010100A00FF7C
:10534000AD1A2011110B00000B1BE00E0F0D000019
:105350006D1BE00E0F1000FEE51B900C0D0D000004
:105360003A1C0010100E00FEAA1C0010101100FDC7
:10537000321DB00D0E0F00FE9B1D0008081000FD31
:10538000DB1D0010101100FD631E2011120B000028
:10539000C61E900C0D0D00FF1B1FB00D0E1100FD61
:1053A000921F5012120D000007209014150C0000DF
:1053B00085209014150C000003219014150C00009A
:1053C00081219014150C0000FF219014150C000091
:1053D0007D22B00D0C1101FD33CFCFCFCFCFCFCF7A
:1053E000340067CF4223F88FF88FF38AA06400005F
:1053F0004104100003F00F300006D04F000009A058
:105400006C000CFFFFFFF4000F40C600003F00F4EB
:1054100000237D35F3306CEECEFC9000C709A00070
:1054200000F40C700002F00F400000032000000C9C
:105430008000005DA3000CFCEF606F401CE08F005B
:1054400007F27F4000001DF93000018EFB200000B4
:105450006FD0420006F4EB0005F48F634CE019FFB7
:10546000FC30000F4000000C3000016730000000ED
:10547000CB9F2001002F00B804F003F00A80D50074
:105480000E74E48C00002AC52E200000000B801052
:10549000000005D1CDF50001D48B05E000990C800A
:1054A0000F001E108A05F0000001DCF5000000006E
:1054B0001000001675000001EFCF900006F206F113
:1054C0000008F106F00002F87E6000009FF6000080
:1054D00003EFE300412EB2DC11F48F203FB6F26FF0
:1054E0002004FFA02FB305EF7003DFFFAAF4000034
:1054F00020000042F8F7F27000071009D105F20011
:10550000E8004F300AE000CC000EB000F8000DC0FB
:1055100000CC000AE0003F3000CA0003F30006F1AF
:1055200000050081000AC1000D90004F2000F90025
:105530000AE0008F0006F3004F4006F2008F000AD9
:10554000E000F7005F201D700AA000500000002757
:10555000000012F0002E9F9E104DFC5103FAE10056
:10556000580B300002720000004F40000004F400AD
:1055700000004F40008FFFFFFF82447F7442000411
:10558000F40000004F40000003C30000C6F8F5E03F
:10559000466658CCCB56BC00001300007E0000E7E6
:1055A0000004F2000AB0001E50006F0000D9000293
:1055B000F20009D0000F60005F1000BA0000015730
:1055C00051002CECEC20AE101EA0F80008F0F80002
:1055D00008F1F80008F4F80008F4F80008F4F800FE
:1055E00008F0FA000AF07F616F7008FFF80000020F
:1055F0000000233748FFF8000F8000F8000F8000FC
:10560000F8000F8000F8000F8000F8000F8000F80D
:10561000015761001DFCEE30AF101EB0A8000CE079
:1056200000000EB000007F400003E900001CD00025
:1056300000DE10000AF300007F733331CFFFFFF468
:1056400001576203DFCEE4BE101EC84000BE00005A
:105650000DC0067AF3009CEC300000CD000008FF7E
:1056600090009F9E505EB19FFFA1000200000000CD
:105670000330000003FF000000CFF000006FAF0018
:10568000001E88F0000AD08F0004F408F000DA0051
:105690008F006FCBBDFB648888CF84000008F000CA
:1056A00000008F00043333300FFFFFC04F40000075
:1056B0004F3000006F1331008FEFFD308E203FB070
:1056C000000009F0000008F1CC0009F07F506E9056
:1056D00009FFFA10000200000036751006FDCE40EA
:1056E0004F700000BE000000DB033000FADFFE3028
:1056F000FF302DD0F80005F4CC0004F4AE0006F223
:105700002F924EC004EFFC1000010000133333331E
:1057100013CCCCCDF4000000BD0000007F200000C1
:105720002E6000000AE0000001F60000006F10008B
:10573000000BD0000000CC0000000EC0000000FCF8
:10574000000000167610003EFCFE300BF101FB005D
:10575000CC000CD00AD100EB001DD7CD10019FCE9C
:105760009100CD101DB02F70006F21F80008F10CD2
:10577000E505EC001AFFFB10000020000000167485
:105780000003EECFB00DC103F82F6000CC4F4000F6
:105790009E1F70009F0CE407FF01CFFD9F000030AB
:1057A000BD000000EB02303AF306FFFE40000300AC
:1057B0000066CC000000000066CC66CC0000000053
:1057C00000C6F8F5E0000004B0006BFE06DFA40898
:1057D000FA20002AFC5100029FE9000018F00000A6
:1057E000019BBBBB96888886000000067777769C75
:1057F000CCCC90A200000FFA400006BFC5000028E4
:10580000FB0039EE76CFD600FA400002000000001F
:10581000677201CFCEE46F301EC24000CE00000E92
:10582000B0000AF30006F60002F900003C30000068
:1058300000000027400004F80000000030000000D5
:10584000006BFCFC6000019D30002BA1008B100060
:10585000000B802F2007A9202F19A009D69F00C474
:10586000C604F207C00A6F408D008C0088F00CC09F
:1058700008A0088F40CC00C800D4F40AD14E906E26
:105880000BA03FFD5FCD203F1002001100009C30B7
:1058900000000000007FA779A000000014786100DC
:1058A0000000003300000000EF10000004FF700053
:1058B000000AEBC000000F96F200005F21F7000025
:1058C000BD00BD0001F9337F3006FFFFFF900DD012
:1058D000000AD02F700005F47F100000FA33333334
:1058E000000CFCCEFB10CC0004F80CC0000CC0CCAB
:1058F0000001EA0CD778DC10CFCCCDE60CC0000755
:10590000F4CC00000F8CC00002F7CC3334CF2CFF56
:10591000FFFB3000257510007FDCEE604F8001BE7C
:105920002CE00003F5F80000042F80000000F800D0
:1059300000000F80000000EA00000C6AE10005F49E
:105940001FC314EC002CFFF91000002000003333BB
:1059500032000CFCCFFA10CC0004EC0CC00004F7B1
:10596000CC00000EBCC00000CCCC00000CCCC000B1
:1059700000CCCC00000F9CC00008F4CC3349F80CDC
:10598000FFFFC40033333331CFCCCCC3CC00000095
:10599000CC000000CC000000CD777740CFCCCC60AD
:1059A000CC000000CC000000CC000000CC33333130
:1059B000CFFFFFF433333332CFCCCCC6CC00000062
:1059C000CC000000CC000000CC333320CFFFFF80A0
:1059D000CC000000CC000000CC000000CC00000097
:1059E000CC00000000257520007FECEE604F900099
:1059F000AE2CE00002F6F90000000F80000000F875
:105A0000006BBB6F800488F8EB00000F8AE2000097
:105A1000F81FC4027F601AFFFE5000002000003310
:105A20000000023CC000008FCC000008FCC0000059
:105A30008FCC000008FCC333339FCFFFFFFFFCC0B7
:105A400000008FCC000008FCC000008FCC000008D4
:105A5000FCC000008F358F8F8F8F8F8F8F8F8F8F30
:105A60008F00000042000000F8000000F800000075
:105A7000F8000000F8000000F8000000F800000046
:105A8000F8130000F84F4004F52FB22CF105EFFD9C
:105A90003000011000330000132CC0001CD1CC00DA
:105AA0000AF30CC007F400CC04F6000CC4EA0000B2
:105AB000CFCF90000CC08F6000CC00BE300CC00176
:105AC000DD10CC0003FC0CC00005F933000000CC55
