:020000040800F2
:1000000000900020A92B0008990F00089B0F000802
:1000100000000000000000000000000000000000E0
:100020000000000000000000000000009D0F00081C
:1000300000000000000000009F0F0008A10F000852
:10004000F92B000800000000F92B0008F92B00082C
:10005000F92B0008F92B0008F92B0008F92B0008F0
:1000600000000000F92B0008F92B0008F92B00080C
:10007000F92B0008F92B0008F92B000800000000FC
:10008000F92B0008F92B0008F92B0008F92B0008C0
:10009000F92B0008F92B0008F92B0008F92B0008B0
:1000A000F92B0008F92B0008F92B0008F92B0008A0
:0800B000F92B0008F92B0008F0
:1000B80010B5064C2378002B07D1054B002B02D036
:1000C800044800E000BF0123237010BD180500207C
:1000D80000000000E8320008044B10B5002B03D0E4
:1000E8000349044800E000BF10BDC04600000000FE
:1000F8001C050020E832000802B47146490849008E
:10010800095C49008E4402BC7047C04603B471467E
:10011800490840004900095E49008E4403BC704705
:10012800002243088B4274D303098B425FD3030A2E
:100138008B4244D3030B8B4228D3030C8B420DD341
:10014800FF22090212BA030C8B4202D312120902CF
:1001580065D0030B8B4219D300E0090AC30B8B420D
:1001680001D3CB03C01A5241830B8B4201D38B03BB
:10017800C01A5241430B8B4201D34B03C01A524160
:10018800030B8B4201D30B03C01A5241C30A8B42A3
:1001980001D3CB02C01A5241830A8B4201D38B028E
:1001A800C01A5241430A8B4201D34B02C01A524132
:1001B800030A8B4201D30B02C01A5241CDD2C309A4
:1001C8008B4201D3CB01C01A524183098B4201D320
:1001D8008B01C01A524143098B4201D34B01C01A0B
:1001E800524103098B4201D30B01C01A5241C30883
:1001F8008B4201D3CB00C01A524183088B4201D3F2
:100208008B00C01A524143088B4201D34B00C01ADD
:100218005241411A00D20146524110467047FFE749
:1002280001B5002000F0F0F802BDC0460029F7D063
:1002380076E7704703460B437FD4002243088B427E
:1002480074D303098B425FD3030A8B4244D3030B55
:100258008B4228D3030C8B420DD3FF22090212BA1A
:10026800030C8B4202D31212090265D0030B8B4296
:1002780019D300E0090AC30B8B4201D3CB03C01A80
:100288005241830B8B4201D38B03C01A5241430B5B
:100298008B4201D34B03C01A5241030B8B4201D34B
:1002A8000B03C01A5241C30A8B4201D3CB02C01AB6
:1002B8005241830A8B4201D38B02C01A5241430A2E
:1002C8008B4201D34B02C01A5241030A8B4201D31D
:1002D8000B02C01A5241CDD2C3098B4201D3CB01C4
:1002E800C01A524183098B4201D38B01C01A524173
:1002F80043098B4201D34B01C01A524103098B4277
:1003080001D30B01C01A5241C3088B4201D3CB0061
:10031800C01A524183088B4201D38B00C01A524144
:1003280043088B4201D34B00C01A5241411A00D2F4
:1003380001465241104670475DE0CA0F00D049425D
:10034800031000D34042534000229C4603098B42CD
:100358002DD3030A8B4212D3FC22890112BA030A55
:100368008B420CD3890192118B4208D389019211D7
:100378008B4204D389013AD0921100E08909C3095C
:100388008B4201D3CB01C01A524183098B4201D35E
:100398008B01C01A524143098B4201D34B01C01A49
:1003A800524103098B4201D30B01C01A5241C308C1
:1003B8008B4201D3CB00C01A524183088B4201D330
:1003C8008B00C01A5241D9D243088B4201D34B004B
:1003D800C01A5241411A00D20146634652415B108D
:1003E800104601D34042002B00D54942704763466E
:1003F8005B1000D3404201B5002000F005F802BDB3
:100408000029F8D016E770477047C04670B5102627
:1004180098B0342200210BA802F02EFE32000021F1
:10042800684602F029FE1C22002104A802F024FEDE
:100438008020800001F084F81821184A0225D36D25
:1004480000248B43D36505230B93A023DB020C9375
:1004580001230D935B19139380239B02169380232A
:100468000BA89B05179312951494159601F092F812
:100478000723009380232900DB0168460393019535
:10048800029401F0EDFA064B04A8049380235B0064
:1004980006940A9301F0A6FB18B070BD0010024044
:1004A8000200020030B58BB000F0A4FEFFF7AEFFEB
:1004B8001422002105A802F0DFFD04200124424B8C
:1004C8000825596B014359635A6B02400092009A00
:1004D800596B1C300143596302215A6B0240019247
:1004E800019A5A6B394822435A635A6B2240029246
:1004F800029A5A6B2A435A635A6B2A400392039A08
:100508005A6B0A435A635B6B00220B4004933E31DB
:10051800049B01F00FF840230694002405A92B48FA
:1005280005930794089400F0E7FE2948294B846056
:1005380003607F23C360803303618023DB0503628C
:1005480044618461C461446201F05EFC2248234B2B
:10055800C561036082235B004360E023DB00C36066
:1005680080239B008361FA3BFF3BC3624563846041
:1005780004614461046244628462046301F016FD0C
:10058800174D184B28002B60E1235B026B6080231A
:100598005B05AB600C23EC606B612C61AC61EC61BA
:1005A8002C626C62AC6202F07DF92100280002F036
:1005B80007FA2100280002F025FA280002F0E4F9E1
:1005C80002F044FAFEE7C04600100240000C00505A
:1005D800E4050020002800401006002000300140FB
:1005E800740600200044004010B50824FF2000F0E5
:1005F80065FDFF2803D1013CE4B2002CF6D110BD03
:10060800F0B587B004000CA805784020014302A883
:100618000170110E4170110C81700271110A0122D2
:100628001343C1704371002000F036FD062204A96F
:1006380002A800F03FFD052D4AD82800FFF75CFD11
:1006480003142C354835FFF7CFFF0700FF200500BE
:10065800060001906B46207120001B792770667098
:10066800A570E37007B0F0BDFFF7BEFF0700FF20DD
:1006780000F024FD0600012000F00EFD012000F02E
:10068800DFFD002000F008FDFF2000F017FDFF2827
:10069800FAD101900500DDE7FFF7A6FF0700FF206C
:1006A80000F00CFD0600FF20F3E7FFF79DFF0700B1
:1006B800FF2000F003FD0600FF2000F0FFFC05000E
:1006C800FF2000F0FBFC0190FF2000F0F7FCC1E7E1
:1006D800FF200190050006000700BBE710B5084C95
:1006E800FF2000F0EBFC013CA4B2FE2803D0002C54
:1006F800F6D1022010BD604260414000FAE7C046D2
:10070800FFFF0000F0B589B000F0E6FC01220F25DC
:100718005B4B1A7002ABED1800232B7000212B786D
:1007280006AC0133DBB22B700A0095230091200040
:10073800FFF766FF0120277800F0AEFCFF2000F0ED
:10074800BDFC2B78632B03D90125280009B0F0BD27
:10075800012FE3D10523D5220093520082330821CB
:100768002000FFF74DFF2578380000F095FCFF20AA
:1007780000F0A4FC6B0723D5FF26002533002A00D0
:10078800372120000095FFF73BFF380000F084FC7C
:10079800300000F093FC2A00292133002000009546
:1007A800FFF72EFF23783800039300F075FC300024
:1007B80000F084FC039B012BDFD0324B1D80C4E783
:1007C800012DC1D1FF2700263B00320037210096BA
:1007D8002000FFF715FF280000F05EFC380000F04D
:1007E8006DFC802200963B00D20529212000FFF7EE
:1007F80007FF2678280000F04FFC380000F05EFC68
:10080800012EE0D0FF25730717D40323002200939D
:100818003A21FC332000FFF7F3FE2578012000F091
:100828003BFCFF2000F04AFC002D00D08CE76378E9
:10083800144A5B06DB0F138087E700262B00320083
:10084800372120000096FFF7DBFE2778012000F013
:1008580023FC280000F032FC012F00D074E732009E
:1008680000962B0029212000FFF7CAFE26783800C1
:1008780000F012FC280000F021FC012EDDD0C4E7B6
:1008880034050020360500200022F0B58BB004ADF9
:10089800FF230400009209212800FFF7B1FE2B78FE
:1008A800002B30D001230393012000F0F5FBFF203B
:1008B80000F004FC002204ADFF2300920A21280066
:1008C800FFF79EFE2B78002B00D12BE1012601209B
:1008D80000F0E2FBFF2000F0F1FB039B1E43CA4B34
:1008E800F0B21B88012B00D07BE180239B00E363DF
:1008F8006363A3681B019B0A0133DB0423635B0A60
:10090800A3630BB0F0BDFFF7E9FE03900028C9D13F
:100918000600FF2000F0D2FB06AD70550136102E00
:10092800F7D1FF2000F0CAFBFF2000F0C7FB012031
:100938002B789A009B09134323706B786370AB780C
:10094800A370EB78E3706A792B7911091B011943BD
:10095800A38812011B0B1B030B43A3801B051B0F52
:1009680013436371AB79A179DA0981439F11074079
:100978000A43022187408A433A4304275911014018
:100988008900BA430A4308211F1138408A43C0002E
:100998000243A2719C4A1188EA79002900D0A7E095
:1009A800981003310840217A0D3EB143014321726A
:1009B800297A90008A0902439B02134393482289AB
:1009C8001B0502409B0C134307222381A37AC810FE
:1009D80010409343034311403820B14083430B43F5
:1009E800A3726B7AE17A5F099E10914316403943EE
:1009F800F60081433143E17206215B000B40A97A7E
:100A0800D1400B43217B91430B432373012006AE56
:100A1800B37A7E279D118340227C054082432A4376
:100A28007F25F17A3B40CF093B43834029400F00A3
:100A3800024013432374637C317BAB43CA093B43B5
:100A4800D2012B401343032263744B1113409C467D
:100A58006746A37C93433B431C271932BB430A4098
:100A68001A43A2740C22737B890011409A0911431E
:100A78008C460F226746E17C9143394310275A116F
:100A88000240B94312010A43E2741F22217D134038
:100A980091430B432021B27B8B43D7097F013B4312
:100AA8004027911101408901BB430B435711FF01B6
:100AB8002B40617D3B43237581431311034008009C
:100AC80003270343062091103940490083430B4311
:100AD8003A401821BA408B431A436275F27BA37DD2
:100AE8005108AB430B43D2011D401543A575DBE606
:100AF8003C213F209B000B4091090B43217A1204B3
:100B080081430B4323722B89A1685BBA9BB21A43BA
:100B18003F4B920212090B401A43A260120EB243D5
:100B2800E27273E7FFF7DAFD061E00D0CEE6070093
:100B3800FF2000F0C3FA06AD78550137102FF7D122
:100B4800FF2000F0BBFAFF2000F0B8FA2B78210054
:100B580023766B7828311B026383638BAA7813434F
:100B68006383EB781B06E3612B79E2691B0413436B
:100B7800E3616B79E2691B021343E361E269AB79D4
:100B88001343E361EA79631CDA772A7AA31CDA77DC
:100B98006B7A1B066362AB7A626A1B041343636257
:100BA800EB7A626A1B0213436362626A2B7B13430C
:100BB80063626B7B0A78180902430A70F0221B02F1
:100BC800120113406385AA7B638D1343220063855A
:100BD800EB7B2C325B081370230001222D331A7033
:100BE80075E62389227B9B0452071B0D520F0232A4
:100BF80001339340802201219200E2636279120955
:100C080091409340616379E63605002003C0FFFFF9
:100C18003F0000F0F0B587B003920023802204ADB6
:100C280000939200FF3307000C0028001021FFF703
:100C3800E7FC2E78012000F02FFAFF2000F03EFAA2
:100C4800002E02D00025012614E08020800001F04B
:100C5800FBFF051EF6D08022FF21920002F00CFA5D
:100C6800244B1B88012B01D080239B005C43039BF2
:100C7800002B0DD1012000F00FFAFF2000F01EFA22
:100C8800002D02D0280001F0E9FF300007B0F0BDC8
:100C98000023220000931121FF3304A8FFF7B0FCC2
:100CA80002AB1B7A002BCED1FFF718FD0028CAD162
:100CB800802239009200280000F0FCF90D4B1B88B7
:100CC800012B13D10134FF2000F0F8F9FF2000F0C8
:100CD800F5F9012000F0E0F9FF2000F0EFF9039B9F
:100CE800013B039380239B00FF18C0E780239B00F0
:100CF800E418E8E736050020F0B587B00392002332
:100D0800802204AD00939200FF3307000C002800F6
:100D18001021FFF775FC2D78012000F0BDF9FF20A8
:100D280000F0CCF9002D09D00125012000F0B4F91C
:100D3800FF2000F0C3F9280007B0F0BD8020800034
:100D480001F082FF061EEFD0304B1B88012B01D02B
:100D580080239B005C430297039B002B03D1300048
:100D680001F07CFFE1E7002304AF00932200FF338A
:100D780018213800FFF744FC3B78002B44D1FF20B2
:100D880000F09CF9FF2000F099F9FE2000F096F998
:100D9800802231009200029800F08CF91B4B1B88CE
:100DA800012B2DD10134FF2000F088F9FF2000F03D
:100DB80085F9FF2000F082F90700FF2000F07EF996
:100DC8001F231F40052F1FD1012000F065F90020C7
:100DD80000F062F9FF2000F071F90700FF28F9D14F
:100DE800012000F059F9380000F068F980229200DB
:100DF8009446039B013B0393029B63440293ABE736
:100E080080239B00E418CEE70125A8E736050020DB
:100E18001FB5022302AC00220D2100932000FD33F0
:100E2800FFF7EEFB012000F037F9FF2000F046F94C
:100E380023780120002B03D16078431E9841C0B26B
:100E480004B010BD01200A4B82B0196C014319642B
:100E580080211A6C490502400092009ADA6B0A4315
:100E6800DA63DB6B0B400193019B02B07047C0460D
:100E7800001002400A4B026882B09A420ED18022CA
:100E8800084B1202D96D0A438021DA65DA6BC90072
:100E98000A43DA63DB6B0B400193019B02B0704796
:100EA800002800400010024010B5040088B0142249
:100EB800002103A802F0E0F80F4B22689A4218D1EB
:100EC80080200E4B4001196C014319641A6C0240D2
:100ED8000192019A0222596B0948114359635B6BCD
:100EE80003A913400293029B38230492039300F052
:100EF80003FA08B010BDC04600300140001002409F
:100F080000040050074B026810B59A4208D1064AFF
:100F18000649136C06480B401364382100F094FA14
:100F280010BDC0460030014000100240FFEFFFFF37
:100F38000004005010B5040088B01422002103A852
:100F480002F09AF8104B22689A421BD180200F4B6E
:100F58008002D96B0143D963DA6B02400192019A8E
:100F68000122596BA020114359635B6B03A91340FD
:100F78000293029B0C23C00503930A3B0493079238
:100F880000F0BAF908B010BD00440040001002405B
:100F98007047FEE77047704710B500F03FF910BD85
:100FA800F0B52D4C89B0200001F0A8F9061E50D1EB
:100FB8002A4B022723600823E361073B636106335A
:100FC800E362E023DB00E3608023254D9B001422CD
:100FD8000100A060A06220632062A3616062FC3B04
:100FE800606303A86360276102F046F86B6B03A98E
:100FF8003B436B636B6B1B483B400093009B6B6BE5
:101008003B436B636B6B04973B400193019B082345
:101018000393073B0593DB19069300F06DF9202332
:1010280003A9104803930796059700F065F9102364
:1010380003A90C48039300F05FF980212A6C490149
:101048000A432A642B6C20000B400293029B00F099
:10105800ADFF09B0F0BDC0463805002000300140A2
:10106800001002400004005013B51300084A094C50
:10107800126800920A000100200001F00DF8002813
:1010880004D0200000F0F0FFFFF78AFF13BDC04630
:10109800000000203805002010B50200012804D106
:1010A8004021034800F046FA10BD0022F8E7C04688
:1010B800000C005010B5FFF7D7FF10BD1FB50F2467
:1010C8006B466C44D8710733180001222100FFF7E2
:1010D800CBFF207804B010BD10B588B014220021D1
:1010E80003A801F0C9FF08201A4B0124596B0143DA
:1010F800596302215A6B02400192019A5A6B1648B1
:101108000A435A635B6B01220B4002933E31029BF8
:1011180000F010FA01221148110000F00BFA4023E8
:1011280003A903930C483D3B06930494059400F0EF
:10113800E3F803A90848039400F0DEF8FFF730FF4E
:101148000934013CFF20E4B2FFF7B8FF002CF8D1C6
:1011580008B010BD00100240000C00500004005000
:101168000A4B10B519680200002901D10849196015
:101178006946186882188A4206D901F03BFD0C239B
:1011880003600120404210BD1A60FCE79C05002066
:10119800780B00208022024B12059A607047C046E7
:1011A80000ED00E0104B70B519680500002901D169
:1011B800012070BDFA208000FEF7B2FF0B4B010042
:1011C8001868FEF7ADFF00F07DF8041EF0D1032D7E
:1011D800EED8020001202900404200F043F8044BF9
:1011E80020001D60E5E7C04608000020040000203C
:1011F8000C0000208023084A5B00116810B50B43DF
:1012080013600020FFF7CEFF041E03D1FFF71AFE7C
:10121800200010BD0124FBE700200240034A0449D6
:10122800136809685B1813607047C0460007002000
:1012380008000020014B18687047C04600070020CE
:1012480070B50400FFF7F6FF0500631C02D0044BDD
:101258001B68E418FFF7EEFF401B8442FAD870BD04
:101268000800002070B58901002812DB8308134AA2
:1012780003249B009B18FF222040A0401400C02597
:10128800844011408140AD005E59A6433143595115
:1012980070BD03240F23C0B203402040A040FC349B
:1012A8002500214085408140083B054A9B089B005A
:1012B8009B18DA69AA431143D961E9E700E100E024
:1012C80000ED00E0094A431E012093420DD8C021D9
:1012D800074A08485360036A09061B021B0A0B43A6
:1012E800036200200723906013607047FFFFFF0030
:1012F80010E000E000ED00E0F0B50B6885B0029367
:1013080000230191029ADA4001D105B0F0BD012213
:101318009A4003920399029A0A40009200D185E00C
:10132800019A1021526816008E43022E0ED107250D
:101338001D40AD000139A940DC08A4000419276A42
:101348008F4301990969A9400F43276203245F006D
:10135800BC40E4430568013E2540AC4603251540E2
:10136800BD4061460D430560012E0FD8019986687E
:10137800CD682640BD403543856046680399150908
:101388008E4301210D409D4035434560C568019954
:101398002C408D688021BD4049052C43C4600A4219
:1013A80044D003260F2422499D081E40AD00F600B4
:1013B8006D18B440A0212F6EC905A74300248842A8
:1013C8000CD01C490134884208D01B49013488429A
:1013D80004D01A490334884200D1023CB440009931
:1013E8003C430E002C66164CCD43E76F3E43D103B9
:1013F80001D43E002E40E667124E009FF46F27434B
:10140800910301D42C402700094CF7672768009EF8
:101418003E43D10201D43E002E4026606668009FFC
:101428003743920201D42E4037006760013369E7E1
:10143800001802400004005000080050000C005042
:101448000418024008180240F0B50023032785B0AD
:101458000291029ADA4001D105B0F0BD01229A400A
:1014680002990092114056D02C4C9A081D00920007
:1014780012190F243D40ED00AC40166E0194264031
:101488000396A0260024F605B0420FD0244CA446AB
:10149800012460450AD0234CA4460224604505D0A7
:1014A800214CA4463C00604500D00524AC40039D77
:1014B800A54213D1C9431D4E184CF56F0D40F56771
:1014C8001B4EF56F0D40F56725680D402560656872
:1014D80029406160116E019CA14311663C005900CE
:1014E8008C4002682100224307240F261C40A400D8
:1014F800A640C9430260DA0892008218156A009C67
:10150800B543156282680A4082604268A24342601D
:10151800C2681140C16001339BE7C0460018024011
:101528000004005000080050000C0050041802404D
:1015380008180240002A01D0816170478162FCE7E7
:1015480010B5104C1049236802000B400343236078
:10155800802300209B009A420CD10C4B0C49186840
:1015680006235843FEF7DCFD8022431CD200606945
:10157800104000D110BD002B01D0013BF7E703203C
:10158800F8E7C04600700040FFF9FFFF04000020A4
:1015980040420F00F0B5040085B0002802D10120B8
:1015A80005B0F0BD0368DB0710D423689B075CD443
:1015B80023681B0700D5C2E023685B0700D5F4E069
:1015C800E269002A00D073E10020E9E73822AC4D37
:1015D800AB681340EA68102B09D1D243930708D1AE
:1015E8002B689B03E1D56368002BDED1D7E7082B76
:1015F800F6D0802263685202934211D12A681343BD
:101608002B60FFF717FE80260700B6022B683342CF
:10161800CBD1FFF70FFEC01B6428F7D90320BFE723
:10162800A021C9028B4208D180232968DB020B4321
:101638002B602B681A432A60E3E72A6891490A401D
:101648002A602A6890490A402A60002BD9D1FFF7FE
:10165800F1FD80260700B6022B683342A5D0FFF7BC
:10166800E9FDC01B6428F7D9D8E73823844DAA6858
:101678001340EA68102B29D103210A40022A27D1F6
:101688002A68520503D5E268002A00D187E769680D
:1016980062697E48120201400A436A60002B0DD13C
:1016A8002B687B4A1340226913432B602B68794AC5
:1016B8009B045B0FDA401300774A1360774B186876
:1016C800FFF770FD002800D172E768E7002BD7D03C
:1016D800E368002B20D02B686D4A802613402269CE
:1016E800F60013432B6080232A685B0013432B60AA
:1016F800FFF7A0FD07002B68334207D06A686369CB
:1017080062491B020A4013436B6051E7FFF792FDE1
:10171800C01B0228EFD981E72B68614A8026134055
:101728002B60FFF787FD0700F6002B68334200D1D6
:101738003EE7FFF77FFDC01B0228F6D96EE7382188
:101748004F4B9A681D000A40182A08D11B6E9B0748
:1017580000D431E7A369002B00D02DE71FE7A26969
:101768000123002A10D02A6E022613432B66FFF7A6
:1017780061FD07002B6E334200D01DE7FFF75AFDCD
:10178800C01B0228F6D949E72A6E02269A432A6620
:10179800FFF750FD07002B6E334200D10CE7FFF72F
:1017A80049FDC01B0228F6D938E73821344B9A681E
:1017B8001D000A40202A08D1DB6D9B0700D4FFE6F4
:1017C800A368002B00D0FBE6E9E68022DB6B52051C
:1017D800134200D1EDE000238027324E0093336896
:1017E8007F003B4215D0A368012B22D1EA6D134339
:1017F800EB65FFF71FFD02270600EB6D3B4238D073
:10180800009B012B00D0DBE6EB6B274A1340EB6310
:10181800D6E633683B433360FFF70CFD019033682D
:101828003B42E0D1FFF706FD019BC01A0228F6D91A
:10183800F4E6EA6D052B05D1013B1343EB65EA6D30
:101848000123D4E701218A43EA65EA6D03318A431B
:10185800EA65002BCDD1FFF7EDFC02270600EB6D02
:101868003B42CDD0FFF7E6FC104B801B9842F6D9DF
:10187800D4E6FFF7DFFC0D4B801B9842BDD9CDE6BF
:1018880000100240FFFFFEFFFFFFFBFFFF80FFFF8E
:10189800FFC7FFFF0024F400040000200C00002014
:1018A800FFFEFFFF00700040FFFFFFEF88130000FE
:1018B8003820444B99681D000140102952D01B68FC
:1018C80041490B402B60022A35D1FFF7B3FC802633
:1018D8000700B6042B68334227D1616A236AEA6895
:1018E8000B433A490A401343E26A1343226B1343FA
:1018F800A26A802412021343EB6080232A685B04E7
:1019080013432B608023EA685B051343EB60FFF702
:1019180091FC0600A4042B68234200D054E6FFF78C
:1019280089FC801B0228F6D978E6FFF783FCC01BE8
:101938000228CFD972E60322EB6880249343EB6038
:10194800EB68234AA4041340EB60FFF773FC06001E
:101958002B68234200D137E6FFF76CFC801B022876
:10196800F6D95BE6012A00D119E6D8680323226A72
:101978000340934200D012E67023626A0340934208
:1019880000D00CE6FE22A36AD20102401B029A4252
:1019980000D004E6F823E26A9B030340934200D098
:1019A800FDE5236B400F4007C01A431E9841C0B2A3
:1019B800F6E5EB6B1343EB63EB6B13400393039B6D
:1019C800012309E700100240FFFFFFFE8C80C11FC2
:1019D800FFFFFEEF38231F4A70B5916814001942C3
:1019E80008D1012113681C489B045B0F9940FEF73E
:1019F80097FB70BD91681940082925D09168194056
:101A0800102915D1D368D168DB437F22E5684906E0
:101A1800490F2D0A013115409B0707D10F48FEF7E2
:101A28007FFBE1686843490F0131E0E70A48F6E7C0
:101A380091681940202909D0926800201340182B7A
:101A4800D7D1FA20C001D4E70448D2E780200002A9
:101A5800CFE7C046001002400024F40000127A00CC
:101A6800F7B505000E00002801D10120FEBD0727AB
:101A78004A4C23683B408B422AD329688B073BD4C6
:101A8800CB0748D4072723683B409E420AD22368E5
:101A9800BB4333432360FFF7CDFB019023683B40F2
:101AA8009E426BD12B683E4C5B076FD4FFF792FFC9
:101AB800A3683C4A1B051B0F9B009B581F22134021
:101AC800D840394B1860394B1868FFF76BFBCDE7E6
:101AD8002368BB430B432360FFF7ACFB01902368EB
:101AE8003B409E42C9D0FFF7A5FB019BC01A304B73
:101AF8009842F4D90320B9E7294A4B0704D5E023D3
:101B08009068DB010343936093682A480340A86800
:101B180003439360B4E76A68214F012A19D13B68EF
:101B28009B03A2D50721BB688B431343BB60FFF718
:101B380081FB01903823BA681A406B68DB009A422F
:101B4800A0D0FFF777FB019BC01A194B9842F1D937
:101B5800D0E7022A03D13B689B01E3D485E7002A3A
:101B680003D13B685B05DDD47FE70223032A03D159
:101B7800396E1942D6D178E7F96DFAE7FFF75AFBC3
:101B8800019BC01A0A4B984288D9B3E7A3680A4A4E
:101B98001340EA681343A36088E7C0460020024068
:101BA8000010024000330008040000200C00002050
:101BB80088130000FFF0FFFFFF8FFFFF064B074A67
:101BC8009B685B045B0F9B009B581F221340044AD1
:101BD8001068D8407047C0460010024040330008E3
:101BE80004000020F0B505002B6885B000209B0399
:101BF8004FD580224B4C5205E36B0090134208D11D
:101C0800E36B1343E363E36B13400393039B0123E9
:101C180000938027444E7F0033683B433360FFF7CF
:101C280009FB019033683B4225D0C023E26D9B003D
:101C380013400FD0AA6993420CD0E26D3B4BE16D83
:101C48001340802252020A43E265E26D38490A4095
:101C5800E265E365DB0706D5FFF7ECFA0227060025
:101C6800E36D3B4257D0E36D304A00201340AA6928
:101C78001343E36506E0FFF7DDFA019BC01A02286B
:101C8800D0D90320009B012B03D1E36B294A1340D1
:101C9800E3632A68D30706D5032422494B6DA3437F
:101CA8006C6823434B65930706D50C241D494B6D7F
:101CB800A343AC6823434B65530606D519491E4C0C
:101CC8004B6D2340EC6823434B6553040FD51549EE
:101CD8006C694B6D9B009B0823434B658023DB0598
:101CE8009C4204D18023CC685B022343CB6013055C
:101CF8000FD50C49114C4B6D2A69234013434B6592
:101D08008023DB019A4204D18023CA685B02134313
:101D1800CB6005B0F0BDFFF78DFA094B801B9842E8
:101D28009ED9AEE70010024000700040FFFCFFFFA4
:101D3800FFFFFEFFFFFFFFEFFFCFFFFFFF3FFFFFAC
:101D480088130000A0210268F8B5D36804008B430B
:101D5800D360FFF76FFAFA2706002025BF00236833
:101D6800DB682B4201D00020F8BDFFF763FA801B27
:101D7800B842F4D90320F7E7F8B54027036805000F
:101D8800DA6800243A420CD18022D9680A43DA6022
:101D9800FFF750FA06002B68DB683B4201D1032CA1
:101DA80001D12000F8BDFFF745FAFA23801B9B00FC
:101DB8009842F0D92B00032429331C70EBE700006C
:101DC800802270B50F4C0500E3689343E360A36974
:101DD800603A134207D1FFF7B5FF002802D003206D
:101DE8002935287070BDA3699343A361FFF7AAFF43
:101DF800002802D00320293528702023A269134324
:101E0800A361EFE70028004070B504000120002C12
:101E180047D0250029352B78DBB2002B08D12200CA
:101E28002832137088231B0263602000FFF722F812
:101E38000223CA222B70236820005A62773A5A621A
:101E4800FFF79AFF002825D1236816499A69606927
:101E58000A409A61A26899690243E06902430A4309
:101E68009A61226920001A61E268196912040A431A
:101E78001A61FFF7A5FF00280CD12268266A93692A
:101E8800DB00DB089361636A91693343A6693343D6
:101E98000B439361FF2223685A62002801D1012372
:101EA8002B7070BDBFFF8FFBE021036810B55A6827
:101EB8008A435A6082224168520091420CD18021A3
:101EC800826809028A4203D08021C9008A4203D16C
:101ED80040211A688A431A608021826A89018A42ED
:101EE80006D11968074C2140196019680A431A601D
:101EF800030001225D331A7000235C300370032055
:101F080010BDC046FFDFFFFFF8B504000D00170045
:101F1800802623689868304009D06A1CFAD0FFF7F9
:101F280089F9C01B8542F4D82000FFF7BDFFF8BD32
:101F3800F7B5C02705000C0016000193FF002B68B9
:101F4800986820400DD0BC4200D11A7B721CF7D093
:101F5800FFF770F9019BC01A8642F0D82800FFF7F6
:101F6800A3FFFEBD70B513000D0016000A00C021C6
:101F780049010400FFF7DCFF002805D02023226E6A
:101F88000320134323660FE0320029002000FFF7E7
:101F9800BBFF0028F2D1C02133002A00C90020006D
:101FA800FFF7C6FF0028E9D170BD0000F8B50400AE
:101FB8000120002C4BD000232500A3625D352B782F
:101FC800DBB2002B05D122005C3213702000FEF733
:101FD8006BFF0223402221682B700B68002093437B
:101FE8000B60E023E268DB009A4231D9F026360123
:101FF800B24233D10600206B002803D19A422FD970
:1020080002232363A7686368A0693B4327693B43AE
:1020180067693B43E7693B43276A3B43A76A3B43FE
:102028008027BF0007403B430B60636A000C1A43DC
:10203800636B1A4304231840104306434E60CB6970
:10204800084A00201340CB61012320662B70F8BD9D
:10205800802676019A42CED0A062CCE70600FBE744
:102068000123CEE7FFF7FFFF70B504000120002C25
:1020780010D025000223402122685D352B7013689B
:1020880020008B431360FEF73DFF00205C34606046
:102098002870207070BD0000F7B51E000300019283
:1020A8005C331A7804000F000225012A00D1ACE045
:1020B80001221A70FFF7BEF8230000905D331B78E9
:1020C8006168DBB2012B0BD082225200914200D012
:1020D80094E0A268002A00D090E0042B00D08DE0A4
:1020E8000125002F00D189E0019B002B00D185E05C
:1020F800002E00D182E023005D331A78042A01D033
:1021080005221A70019A00232264220008322366ED
:10211800D687A21DD687E022E068E3642365A7631B
:10212800E687A687D2002368904201D8012E31D9CC
:102138005A68714D2A405A60402223681D6815422A
:1021480002D11D682A431A60E022D20090425ED96B
:10215800002901D0012E07D13A880237DA60E38FCF
:10216800A763013B9BB2E387012502272E00E38F7B
:10217800002B14D123000833DB8F002B0FD1009ADA
:1021880008992000FFF7EEFE051E37D02023012511
:10219800236633E080225D6852012A43CBE7226838
:1021A80093683B420ED0E38F002B0BD0012D09D151
:1021B8000025A36B19880233D160A363E38F013B29
:1021C8009BB2E387936833420ED021000831CB8F4E
:1021D800002B09D03500236CD2681A80023323649F
:1021E800CB8F013B9BB2CB87FFF724F8009BC01A2B
:1021F800089B8342BBD80133B9D0032523000122B1
:102208005D331A7000235C3423702800FEBD00295A
:1022180001D0012E0AD1E28F012A51D93A8802371A
:10222800DA60E38FA763023B9BB2E38701250227AD
:102238002E00E38F002B05D123000833DB8F002B02
:1022480000D19CE7226893683B4211D0E38F002BB2
:102258000ED0012D0CD1E18FA36B012938D9198833
:102268000233D160A363E38F023B00259BB2E3876F
:1022780021688B68334219D023000833DA8F002A8B
:1022880014D0D88F226C01282AD9C868350010804C
:1022980002322264DA8F023A92B2DA87DB8F012B9C
:1022A80004D880234A685B0113434B60FEF7C2FFE2
:1022B800009BC01A089B8342BBD80133B9D09CE766
:1022C8003A781A73A36B0133A363E38F013BABE73F
:1022D8001B781373A36B0133A363E38F013BC4E73C
:1022E800097B35001170226C01322264DA8F013AC1
:1022F80092B2DA87DAE7C046FFEFFFFF5D30007879
:10230800C0B2704770B5040002698368C16913439D
:102318004269656E134302680B4310682B439F4D57
:1023280028400343136053689D48256A0340E068CA
:1023380003435360A36990682B439A4D28400F25A7
:1023480003439360D06A636AA8431843D0629648EF
:10235800824213D10320954A526D02409448805C12
:1023680080221202914200D1B7E1082817D8FDF760
:10237800C3FE8416BE16F2161616F5008D48824264
:1023880005D10C20894A526D02408B48E7E78B4BF8
:102398009A4200D150E18A4B9A4200D14CE1012087
:1023A80091E1002B2FD0012B19D0022B19D0032B30
:1023B80019D0042B19D0052B19D0062B19D0072BAF
:1023C80019D0082B19D0092B19D00A2B19D00B2B8F
:1023D80019D17C48636861685B08181860E17A481D
:1023E800F8E77A48F6E77A48F4E77A48F2E77A486D
:1023F800F0E77A48EEE77A48ECE77A48EAE77A487D
:10240800E8E77A48E6E77A48E4E7FFF7E3FA1AE10B
:10241800002B18D0012B19D0022B1AD0032B1BD05C
:10242800042B1BD0052B1CD0062B1CD08020072B7F
:102438001BD0082B1BD0092B1BD00A2B1BD00B2B16
:1024480002D14000C6E780204002C3E78020000296
:10245800C0E78020C001BDE76648BBE78020800157
:10246800B8E76548B6E76548B4E74001B2E7000158
:10247800B0E7C000AEE78000ACE7FFF79FFB636AF8
:102488000121002B21D04918012B1ED00231022B2B
:102498001BD00231032B18D00231042B15D0023186
:1024A800052B12D00231062B0FD00431072B0CD08C
:1024B8001031082B09D02031092B06D040310A2BC6
:1024C80003D07F390B2B00D1FF316568FDF728FE5B
:1024D80029006B08C018FDF723FE80B20300484AA4
:1024E800103B934200D95AE72368D860EAE0002BF2
:1024F8002FD0012B19D0022B19D0032B19D0042B64
:1025080019D0052B19D0062B19D0072B19D0082B59
:1025180019D0092B19D00A2B19D00B2B19D13948EE
:10252800636861685B081818D5E72848F8E7294800
:10253800F6E72A48F4E72A48F2E73348F0E7334851
:10254800EEE72848ECE72848EAE72848E8E71D4886
:10255800E6E71D48E4E7FFF73DFA90E7002B18D0BF
:10256800012B18D0022B53D0032B54D0042B54D05A
:10257800052B55D0062B55D08020072B54D0082B7F
:1025880054D0092B54D00A2B54D00B2BC8D000029E
:10259800C6E78020FBE78020C001C1E7F369FFCFD1
:1025A800FFCFFFFFFFF4FF11003801400010024089
:1025B80060330008004400406433000800480040CD
:1025C800004C004048E801000024F40000127A00A2
:1025D8005461510000093D0000D43000AAB0280021
:1025E80080841E0040420F0020A1070090D0030005
:1025F8000048E801AA2A00009819000054150000B4
:10260800EFFF000024F40000006A18005558140079
:102618008020800184E7384882E7802040017FE7F6
:1026280036487DE736487BE7000179E7C00077E761
:10263800800075E7400073E780231B02994200D0B1
:102648001BE7FFF7BBFA636A0121002B21D0491869
:10265800012B1ED00231022B1BD00231032B18D0C4
:102668000231042B15D00231052B12D00231062B72
:102678000FD00431072B0CD01031082B09D0203192
:10268800092B06D040310A2B03D07F390B2B00D100
:10269800FF31FDF745FD6568400029006B08C0184B
:1026A800FDF73EFD80B20300164A103B934200D965
:1026B80075E60F2302009A43130000072268400FB3
:1026C8001843D0600020220001236A321380023AA6
:1026D80013800023E366236770BD082800D95EE6EF
:1026E800FDF714FDAFFF5DFE5FFE5DFE93FE5DFE30
:1026F8005DFE5DFE96FEC04655150000CC0C000040
:10270800AA0A0000EFFF0000836A30B5DA0706D591
:102718000168284C4A682240C46A22434A609A07E2
:1027280006D50168244C4A682240046B22434A605B
:102738005A0706D50168214C4A682240446B224357
:102748004A601A0706D501681D4C4A682240846B06
:1027580022434A60DA0606D501681A4C8A68224084
:10276800C46B22438A609A0606D50168164C8A68AB
:102778002240046C22438A605A0610D50168134D22
:102788004A68446C2A4022434A6080225203944299
:1027980005D14A680E4C2240846C22434A601B06CD
:1027A80006D502680B4953680B40C16C0B43536054
:1027B80030BDC046FFFFFDFFFFFFFEFFFFFFFBFF31
:1027C800FF7FFFFFFFEFFFFFFFDFFFFFFFFFEFFFD1
:1027D800FFFF9FFFFFFFF7FFF8B504000E0015008D
:1027E8001F002268D36933409B1B59424B41AB42BF
:1027F80001D000201EE0069B0133F3D0FEF71AFD3E
:10280800069BC01B834201D3002BEAD1220008CAD1
:1028180009481968014019609968A330FF3081435D
:1028280099602023D36722000832D36700237C34C1
:1028380023700230F8BDC0465FFEFFFF030073B58A
:102848000026040088331E60FEF7F4FC23680500A8
:102858001B681B0717D423681B685B070AD58021F0
:102868000F4B00220093C9032B002000FFF7B4FF91
:10287800002813D120230020221DD3677C34043282
:10288800D36720700BE08021054B32000093890349
:1028980003002000FFF7A0FF0028DCD0032076BD4E
:1028A800FFFFFF0170B5041E01D1012070BD051D99
:1028B800EB6F002B04D102007C321370FEF73AFB59
:1028C800242301212268EB67136820008B431360DF
:1028D800FFF718FD0128E8D0A36A002B02D02000DA
:1028E800FFF712FF236808495A6820000A402A2186
:1028F8005A609A688A439A60012219680A431A60E2
:10290800FFF79CFFD2E7C046FFB7FFFF0123F0B5F2
:1029180087B002AA137053709370032202A9CA7079
:1029280002250022072604AC8A71CA710E714B7108
:10293800A570042107000500083222702271426E3A
:102948006170E1706371A371E3716A376835002AB9
:1029580003D13B802B8007B0F0BD03689A689B6861
:1029680001925B0F02AAD05CE15CC000FDF762FC3B
:10297800019B38805B0E1E4002AB985DA15DC000D4
:10298800FDF758FC2880E6E770B504007C3422780F
:102998000223012A10D001260268051D2233EB67A5
:1029A80011681368B3431360044B1940002343664E
:1029B80011602022EA672370180070BDFFFFFFDF57
:1029C800F8B505007C352B7804000220012B17D0C0
:1029D800242322680138261D2870F36717681368B6
:1029E8008343136093682000DB00DB081943916080
:1029F800FFF78CFF236800201F602023F3672870EF
:102A0800F8BD0000F8B505007C352B7804000220DD
:102A1800012B17D024230138261D2870F36723685B
:102A28001F681A6882431A609A680748024011436F
:102A380099602000FFF76AFF236800201F602023A9
:102A4800F3672870F8BDC046FFFFFFF110B50649CF
:102A5800064800F09FF8002803D10122044B1A70A1
:102A680010BD01204042FBE7040700207433000832
:102A7800A005002070B50125054C2570FEF7C8F9A2
:102A8800002802D12378AB4323702078C0B270BDF0
:102A980010000020012310B5054C2370FDF732FE0D
:102AA800002802D1FFF7E6FF20702078C0B210BDE1
:102AB8001000002010B5FFF7DDFF10BD080010B5AD
:102AC80011001A00054BFEF7A5F803000120002BA2
:102AD80003D1FEF79DF90028FBD110BD00E1F505F3
:102AE80010B5114B14001A7890B00320D30713D4F3
:102AF8000130032910D80800FDF7FEFA0D0208106E
:102B08006846FDF7C1FE0E9B236004E06846FDF7AA
:102B1800BBFE0F9B2380002010B010BD6846FDF758
:102B2800B3FE0F9B5B0AEFE710000020080010B50A
:102B380011001A00054BFEF7DFF803000120002BF7
:102B480003D1FEF765F90028FBD110BD00E1F505BA
:102B580030B50F4B01255C7AE4B2002C15D15D7AB3
:102B68005C555D7AAD005D196860587A25001818C3
:102B780002725A7AD2B2501CC0B258723A2330321A
:102B88004B700B3B0A708B70CC70280030BDC04670
:102B9800A405002010B50022FFF7DAFF10BD0000E1
:102BA8000D488546002103E00C4B5B584350043127
:102BB8000B480C4B42189A42F6D30B4A02E000230A
:102BC80013600432094B9A42F9D3FEF7E3FA00F096
:102BD80017F8FDF767FCFEE7009000209033000827
:102BE800000000201805002018050020780B0020A0
:102BF800FEE70000014B18687047C046140000202B
:102C080070B500260C4D0D4C641BA410A64209D1CA
:102C1800002600F065FB0A4D0A4C641BA410A6426E
:102C280005D170BDB300EB5898470136EEE7B30005
:102C3800EB5898470136F2E78833000888330008D4
:102C4800883300088C33000810B5034B010018685E
:102C580000F00EF810BDC0461400002010B5034B5C
:102C68000100186800F086FA10BDC0461400002064
:102C7800F0B50D0085B00B350190162D08D9072346
:102C88009D4306D50C23019A1360002005B0F0BDC2
:102C980010258D42F6D3019800F0F6F9F823FF339A
:102CA800BA489D421FD82A00083282181100546879
:102CB8000839EB088C4203D1D4680233A24229D0E8
:102CC80003236268A1689A431300E268E318CA60A4
:102CD8009160012259680A435A60019800F0DCF9B2
:102CE80020000830D2E76A0A3F23002A03D0042ACA
:102CF80028D8AB09383303229446D9000918CC6880
:102D08008C4206D066466268B243571B0F2F31DDEE
:102D1800013B01330100046908318C424ED0032283
:102D2800666896433200761B0F2E31DD0127631942
:102D38003D433743656043610361D96099605F60D3
:102D4800A650CAE7142A02D813005B33D3E7542AE3
:102D580002D82B0B6E33CEE7AA235B009A4202D827
:102D6800EB0B7733C7E78A497E238A42C3D8AB0C7B
:102D78007C33C0E7E668002F08DBA368DE60B36039
:102D88000123A21851680B435360A6E73400B7E744
:102D980041610161002EF3DA7E498A4242D8D208A5
:102DA800FF399610FF39B1404668D200314341607F
:102DB80010188268E060A2608460D46001229910D3
:102DC8008A4072494868824200D997E0104205D18A
:102DD8000324A343520004331042FBD09C46D8007E
:102DE80008180290029CE468029EB44258D134004C
:102DF800083402940124A444644603263442F1D1E1
:102E08000324234274D14B6893434B6048685200B3
:102E1800824273D8002A71D063461042DED104334F
:102E28005200FAE7560A042E16D891093831CF0015
:102E38003E1803270296BC46B668029FB74227D1C0
:102E4800012289108A4041680A434260029AA660BA
:102E5800E2609460F460B1E7142E02D831005B316F
:102E6800E5E7542E02D8110B6E31E0E7AA2149009C
:102E78008E4202D8D10B7731D9E7454F7E21BE4229
:102E8800D5D8910C7C31D2E7B6680299B14204D00A
:102E98006046716881438A42F6D3F2680292D5E7A8
:102EA80003266768B74303977E1B0F2E11DD0122A7
:102EB800631915436560E068A5680831E860324326
:102EC8008560CB608B60D96099605A603B00E650A2
:102ED80003E7E768002E09DB0122039BE318596822
:102EE8000A435A60A368DF60BB60F6E63C007BE7F4
:102EF80008388468013BA04282D087E703238F68A3
:102F08007A689A430292954203D8521B0F2A00DD31
:102F18009FE0029BFB1803931F4B1E681F4B103644
:102F28001B687619013305D01D4B013B9E191C4BBC
:102F38005B421E403100019800F0B6F80400431CC3
:102F48005FD0039B834202D9104B9F4259D1154B46
:102F58001A68B1181960124B5A1E039BA34227D155
:102F6800134225D1029A094B921901269B681643F0
:102F78005E600C4B0C4A1B6811688B4200D91360C9
:102F88000A4A11688B423CD913603AE008010020D4
:102F980054050000FF010000E00500201005002096
:102FA80080000000B0050020D8050020DC050020C6
:102FB8002D4B1868013032D11C600720204002D008
:102FC8000823181A2418294BA61918181640861B06
:102FD8003100019800F068F8431C01D12000002658
:102FE800234A001B13689B1913600123214A861981
:102FF8001E43946066609742BBD0029A0F2A14D889
:10300800636003221B4B9B685B6893435A1B9D427A
:1030180001D80F2A1DDC019800F03EF835E6039B25
:10302800E31A5B1812490B60C7E70722029E0C3EA1
:1030380096437A681340052233437B60BB195A6074
:103048009A600F2E95D939000198083100F092F84E
:103058008FE701231800074928438C681343651933
:1030680060608D606B6038E610050020800000000D
:10307800B00500200801002003008218934200D107
:10308800704719700133F9E710B5024800F026F9C6
:1030980010BDC0466C0B002010B5024800F01FF9A7
:1030A80010BDC0466C0B0020002370B5064C05000F
:1030B80008002360FEF754F8431C03D12368002B53
:1030C80000D02B6070BDC046740B0020F7B5254FAB
:1030D8000C000500FFF7D8FF38000322224E1138F4
:1030E800B368001B5B6839009343C0180193FDF770
:1030F80017F8441E7C43BC4204DA2800FFF7CCFFD3
:103108000020FEBD00212800FFF7CEFFB368019A1A
:103118009B189842F1D161422800FFF7C5FF431C74
:1031280010D100212800FFF7BFFFB268811A0F29CC
:10313800E3DD0E4B1B68C01A0D4B186001230B43CF
:103148005360DAE7B2680126019B28001B1B334352
:103158005360074B1A68141B1C60FFF79DFF300073
:10316800CFE7C046800000000801002010050020BD
:10317800B0050020F7B50D1E01902DD0FFF784FF94
:10318800012329009C4608394F6862463B00664681
:103198009343C8184568023295434A4A37409668AF
:1031A800B0421AD15B19002F06D10868091A8D6838
:1031B8001B18C868E8608560012018434860916062
:1031C800414A1268934204D3404B01981968FFF7AB
:1031D8007DFF0198FFF760FFF7BD00264560B74205
:1031E80009D10F683A4CC91BDB198F68A7422BD04D
:1031F800CC68FC60A76047197C6801273C420BD16A
:103208005B198568002E21D1314CA5421ED13E00A4
:1032180051611161CD608D60012005001D434D6035
:10322800CB50002ED5D12B4DAB4213D8DB089D10C7
:10323800A8405468DB00204350609A189368CA601D
:103248008B609160D960C4E76646D4E7C068E860DF
:103258008560E1E75D0A042D12D898093830C60068
:10326800B618B5680327AE4225D1012380108340E4
:10327800506803435360CE608D60B160E960A8E791
:10328800142D02D828005B30E9E7542D02D8180B1A
:103298006E30E4E7AA204000854202D8D80B773088
:1032A800DDE70D4E7E20B542D9D8980C7C30D6E7A4
:1032B800AD68AE4203D06A68BA439342F8D3EE6869
:1032C800D9E7C0460801002014050020E0050020C9
:1032D80010010020FF0100005405000070477047EE
:1032E800F8B5C046F8BC08BC9E467047F8B5C0465D
:0832F800F8BC08BC9E467047BB
:1033000000000000000000000000000000000000BD
:1033100000000000000000000000000000000000AD
:103320000100000002000000030000000400000093
:10333000060000000700000008000000090000006F
:10334000000000000000000000000000000000007D
:103350000100000002000000030000000400000063
:1033600000040208001010100410101002101010B9
:10337000080000009D2A0008BD2A0008C52A000890
:08338000352B0008E92A0008C2
:04338800E100000858
:04338C00B90000087C
:10339000E80300000024F400010000000400000025
:1033A00001000000180000200000000000000000E4
:1033B000000000000000000000000000000000000D
:1033C00000000000000000000000000000000000FD
:1033D00000000000000000000000000000000000ED
:1033E00000000000000000000000000000000000DD
:1033F00000000000000000000000000000000000CD
:1034000000000000000000000000000000000000BC
:1034100000000000000000000000000000000000AC
:10342000000000000000000000000000000000009C
:10343000000000000000000000000000000000008C
:10344000000000000000000000000000000000007C
:10345000000000000000000000000000000000006C
:10346000000000000000000000000000000000005C
:10347000000000000000000000000000000000004C
:10348000000000000000000000000000000000003C
:10349000000000000000000000000000000000002C
:1034A0000801002008010020100100201001002068
:1034B0001801002018010020200100202001002018
:1034C00028010020280100203001002030010020C8
:1034D0003801002038010020400100204001002078
:1034E0004801002048010020500100205001002028
:1034F00058010020580100206001002060010020D8
:103500006801002068010020700100207001002087
:103510007801002078010020800100208001002037
:1035200088010020880100209001002090010020E7
:103530009801002098010020A0010020A001002097
:10354000A8010020A8010020B0010020B001002047
:10355000B8010020B8010020C0010020C0010020F7
:10356000C8010020C8010020D0010020D0010020A7
:10357000D8010020D8010020E0010020E001002057
:10358000E8010020E8010020F0010020F001002007
:10359000F8010020F80100200002002000020020B5
:1035A0000802002008020020100200201002002063
:1035B0001802002018020020200200202002002013
:1035C00028020020280200203002002030020020C3
:1035D0003802002038020020400200204002002073
:1035E0004802002048020020500200205002002023
:1035F00058020020580200206002002060020020D3
:103600006802002068020020700200207002002082
:103610007802002078020020800200208002002032
:1036200088020020880200209002002090020020E2
:103630009802002098020020A0020020A002002092
:10364000A8020020A8020020B0020020B002002042
:10365000B8020020B8020020C0020020C0020020F2
:10366000C8020020C8020020D0020020D0020020A2
:10367000D8020020D8020020E0020020E002002052
:10368000E8020020E8020020F0020020F002002002
:10369000F8020020F80200200003002000030020B0
:1036A000080300200803002010030020100300205E
:1036B000180300201803002020030020200300200E
:1036C00028030020280300203003002030030020BE
:1036D000380300203803002040030020400300206E
:1036E000480300204803002050030020500300201E
:1036F00058030020580300206003002060030020CE
:10370000680300206803002070030020700300207D
:10371000780300207803002080030020800300202D
:1037200088030020880300209003002090030020DD
:103730009803002098030020A0030020A00300208D
:10374000A8030020A8030020B0030020B00300203D
:10375000B8030020B8030020C0030020C0030020ED
:10376000C8030020C8030020D0030020D00300209D
:10377000D8030020D8030020E0030020E00300204D
:10378000E8030020E8030020F0030020F0030020FD
:10379000F8030020F80300200004002000040020AB
:1037A0000804002008040020100400201004002059
:1037B0001804002018040020200400202004002009
:1037C00028040020280400203004002030040020B9
:1037D0003804002038040020400400204004002069
:1037E0004804002048040020500400205004002019
:1037F00058040020580400206004002060040020C9
:103800006804002068040020700400207004002078
:103810007804002078040020800400208004002028
:1038200088040020880400209004002090040020D8
:103830009804002098040020A0040020A004002088
:10384000A8040020A8040020B0040020B004002038
:10385000B8040020B8040020C0040020C0040020E8
:10386000C8040020C8040020D0040020D004002098
:10387000D8040020D8040020E0040020E004002048
:10388000E8040020E8040020F0040020F0040020F8
:10389000F8040020F80400200005002000050020A6
:0838A000FFFFFFFF0000020022
:0400000508002BA91B
:00000001FF
